{
  "contracts/Game.sol": {
    "Game": {
      "abi": [
        {
          "inputs": [
            {
              "internalType": "address",
              "name": "_owner",
              "type": "address"
            },
            {
              "internalType": "address",
              "name": "_developerWallet",
              "type": "address"
            },
            {
              "components": [
                {
                  "internalType": "uint256",
                  "name": "baseQueryFee",
                  "type": "uint256"
                },
                {
                  "internalType": "uint256",
                  "name": "queryFeeIncrement",
                  "type": "uint256"
                },
                {
                  "internalType": "uint256",
                  "name": "maxQueryFee",
                  "type": "uint256"
                },
                {
                  "internalType": "uint256",
                  "name": "duration",
                  "type": "uint256"
                },
                {
                  "internalType": "uint256",
                  "name": "startTime",
                  "type": "uint256"
                },
                {
                  "internalType": "uint8",
                  "name": "prizePoolPercentage",
                  "type": "uint8"
                },
                {
                  "internalType": "uint8",
                  "name": "developerWalletPercentage",
                  "type": "uint8"
                }
              ],
              "internalType": "struct Game.GameConfig",
              "name": "_config",
              "type": "tuple"
            }
          ],
          "stateMutability": "payable",
          "type": "constructor"
        },
        {
          "inputs": [],
          "name": "AlreadyRefunded",
          "type": "error"
        },
        {
          "inputs": [],
          "name": "EtherTransferFailed",
          "type": "error"
        },
        {
          "inputs": [],
          "name": "GameEnded",
          "type": "error"
        },
        {
          "inputs": [],
          "name": "GameInProgress",
          "type": "error"
        },
        {
          "inputs": [],
          "name": "GameNotStarted",
          "type": "error"
        },
        {
          "inputs": [],
          "name": "InsufficientQueryFee",
          "type": "error"
        },
        {
          "inputs": [],
          "name": "InsufficientQueryFeeWithSlippage",
          "type": "error"
        },
        {
          "inputs": [],
          "name": "NotAPlayer",
          "type": "error"
        },
        {
          "inputs": [
            {
              "internalType": "address",
              "name": "owner",
              "type": "address"
            }
          ],
          "name": "OwnableInvalidOwner",
          "type": "error"
        },
        {
          "inputs": [
            {
              "internalType": "address",
              "name": "account",
              "type": "address"
            }
          ],
          "name": "OwnableUnauthorizedAccount",
          "type": "error"
        },
        {
          "inputs": [],
          "name": "PlayerAttemptNotFound",
          "type": "error"
        },
        {
          "inputs": [],
          "name": "ReentrancyGuardReentrantCall",
          "type": "error"
        },
        {
          "inputs": [],
          "name": "RefundProcessingFailed",
          "type": "error"
        },
        {
          "inputs": [],
          "name": "RequestIDExists",
          "type": "error"
        },
        {
          "inputs": [],
          "name": "WinnerAlreadyDeclared",
          "type": "error"
        },
        {
          "inputs": [],
          "name": "WinnerRewardConditionsNotMet",
          "type": "error"
        },
        {
          "anonymous": false,
          "inputs": [
            {
              "indexed": false,
              "internalType": "uint256",
              "name": "timestamp",
              "type": "uint256"
            },
            {
              "components": [
                {
                  "internalType": "uint256",
                  "name": "baseQueryFee",
                  "type": "uint256"
                },
                {
                  "internalType": "uint256",
                  "name": "queryFeeIncrement",
                  "type": "uint256"
                },
                {
                  "internalType": "uint256",
                  "name": "maxQueryFee",
                  "type": "uint256"
                },
                {
                  "internalType": "uint256",
                  "name": "duration",
                  "type": "uint256"
                },
                {
                  "internalType": "uint256",
                  "name": "startTime",
                  "type": "uint256"
                },
                {
                  "internalType": "uint8",
                  "name": "prizePoolPercentage",
                  "type": "uint8"
                },
                {
                  "internalType": "uint8",
                  "name": "developerWalletPercentage",
                  "type": "uint8"
                }
              ],
              "indexed": false,
              "internalType": "struct Game.GameConfig",
              "name": "config",
              "type": "tuple"
            }
          ],
          "name": "GameLaunched",
          "type": "event"
        },
        {
          "anonymous": false,
          "inputs": [
            {
              "indexed": true,
              "internalType": "address",
              "name": "previousOwner",
              "type": "address"
            },
            {
              "indexed": true,
              "internalType": "address",
              "name": "newOwner",
              "type": "address"
            }
          ],
          "name": "OwnershipTransferred",
          "type": "event"
        },
        {
          "anonymous": false,
          "inputs": [
            {
              "indexed": false,
              "internalType": "uint256",
              "name": "requestId",
              "type": "uint256"
            },
            {
              "indexed": false,
              "internalType": "address",
              "name": "player",
              "type": "address"
            },
            {
              "indexed": false,
              "internalType": "string",
              "name": "prompt",
              "type": "string"
            }
          ],
          "name": "PlayerAttemptResult",
          "type": "event"
        },
        {
          "anonymous": false,
          "inputs": [
            {
              "indexed": false,
              "internalType": "uint256",
              "name": "requestId",
              "type": "uint256"
            },
            {
              "indexed": false,
              "internalType": "address",
              "name": "player",
              "type": "address"
            },
            {
              "indexed": false,
              "internalType": "string",
              "name": "prompt",
              "type": "string"
            }
          ],
          "name": "PlayerAttempted",
          "type": "event"
        },
        {
          "anonymous": false,
          "inputs": [
            {
              "indexed": false,
              "internalType": "address",
              "name": "player",
              "type": "address"
            },
            {
              "indexed": false,
              "internalType": "uint256",
              "name": "refundAmount",
              "type": "uint256"
            }
          ],
          "name": "PlayerRefunded",
          "type": "event"
        },
        {
          "anonymous": false,
          "inputs": [
            {
              "indexed": false,
              "internalType": "address",
              "name": "player",
              "type": "address"
            }
          ],
          "name": "WinnerDeclared",
          "type": "event"
        },
        {
          "inputs": [],
          "name": "currentWinner",
          "outputs": [
            {
              "internalType": "address",
              "name": "",
              "type": "address"
            }
          ],
          "stateMutability": "view",
          "type": "function"
        },
        {
          "inputs": [
            {
              "internalType": "uint256",
              "name": "requestId",
              "type": "uint256"
            },
            {
              "internalType": "address",
              "name": "winnerAddress",
              "type": "address"
            }
          ],
          "name": "declareWinner",
          "outputs": [],
          "stateMutability": "nonpayable",
          "type": "function"
        },
        {
          "inputs": [],
          "name": "developerWallet",
          "outputs": [
            {
              "internalType": "address",
              "name": "",
              "type": "address"
            }
          ],
          "stateMutability": "view",
          "type": "function"
        },
        {
          "inputs": [],
          "name": "gameConfig",
          "outputs": [
            {
              "internalType": "uint256",
              "name": "baseQueryFee",
              "type": "uint256"
            },
            {
              "internalType": "uint256",
              "name": "queryFeeIncrement",
              "type": "uint256"
            },
            {
              "internalType": "uint256",
              "name": "maxQueryFee",
              "type": "uint256"
            },
            {
              "internalType": "uint256",
              "name": "duration",
              "type": "uint256"
            },
            {
              "internalType": "uint256",
              "name": "startTime",
              "type": "uint256"
            },
            {
              "internalType": "uint8",
              "name": "prizePoolPercentage",
              "type": "uint8"
            },
            {
              "internalType": "uint8",
              "name": "developerWalletPercentage",
              "type": "uint8"
            }
          ],
          "stateMutability": "view",
          "type": "function"
        },
        {
          "inputs": [],
          "name": "getRefund",
          "outputs": [],
          "stateMutability": "nonpayable",
          "type": "function"
        },
        {
          "inputs": [],
          "name": "initialPrizePool",
          "outputs": [
            {
              "internalType": "uint256",
              "name": "",
              "type": "uint256"
            }
          ],
          "stateMutability": "view",
          "type": "function"
        },
        {
          "inputs": [],
          "name": "minSlippagePercentage",
          "outputs": [
            {
              "internalType": "uint8",
              "name": "",
              "type": "uint8"
            }
          ],
          "stateMutability": "view",
          "type": "function"
        },
        {
          "inputs": [],
          "name": "name",
          "outputs": [
            {
              "internalType": "string",
              "name": "",
              "type": "string"
            }
          ],
          "stateMutability": "view",
          "type": "function"
        },
        {
          "inputs": [],
          "name": "owner",
          "outputs": [
            {
              "internalType": "address",
              "name": "",
              "type": "address"
            }
          ],
          "stateMutability": "view",
          "type": "function"
        },
        {
          "inputs": [
            {
              "internalType": "uint256",
              "name": "requestId",
              "type": "uint256"
            },
            {
              "internalType": "string",
              "name": "userInput",
              "type": "string"
            }
          ],
          "name": "play",
          "outputs": [
            {
              "components": [
                {
                  "internalType": "address",
                  "name": "playerAddress",
                  "type": "address"
                },
                {
                  "internalType": "uint256",
                  "name": "requestId",
                  "type": "uint256"
                },
                {
                  "internalType": "uint256",
                  "name": "fee",
                  "type": "uint256"
                },
                {
                  "internalType": "uint256",
                  "name": "timestamp",
                  "type": "uint256"
                },
                {
                  "internalType": "bool",
                  "name": "isWinner",
                  "type": "bool"
                },
                {
                  "internalType": "bool",
                  "name": "isRefunded",
                  "type": "bool"
                }
              ],
              "internalType": "struct Game.PlayerAttempt",
              "name": "",
              "type": "tuple"
            }
          ],
          "stateMutability": "payable",
          "type": "function"
        },
        {
          "inputs": [
            {
              "internalType": "address",
              "name": "",
              "type": "address"
            }
          ],
          "name": "playerAttemptCount",
          "outputs": [
            {
              "internalType": "uint256",
              "name": "",
              "type": "uint256"
            }
          ],
          "stateMutability": "view",
          "type": "function"
        },
        {
          "inputs": [
            {
              "internalType": "address",
              "name": "",
              "type": "address"
            },
            {
              "internalType": "uint256",
              "name": "",
              "type": "uint256"
            }
          ],
          "name": "playerAttempts",
          "outputs": [
            {
              "internalType": "address",
              "name": "playerAddress",
              "type": "address"
            },
            {
              "internalType": "uint256",
              "name": "requestId",
              "type": "uint256"
            },
            {
              "internalType": "uint256",
              "name": "fee",
              "type": "uint256"
            },
            {
              "internalType": "uint256",
              "name": "timestamp",
              "type": "uint256"
            },
            {
              "internalType": "bool",
              "name": "isWinner",
              "type": "bool"
            },
            {
              "internalType": "bool",
              "name": "isRefunded",
              "type": "bool"
            }
          ],
          "stateMutability": "view",
          "type": "function"
        },
        {
          "inputs": [],
          "name": "prizePool",
          "outputs": [
            {
              "internalType": "uint256",
              "name": "",
              "type": "uint256"
            }
          ],
          "stateMutability": "view",
          "type": "function"
        },
        {
          "inputs": [],
          "name": "renounceOwnership",
          "outputs": [],
          "stateMutability": "nonpayable",
          "type": "function"
        },
        {
          "inputs": [
            {
              "internalType": "address",
              "name": "",
              "type": "address"
            },
            {
              "internalType": "uint256",
              "name": "",
              "type": "uint256"
            }
          ],
          "name": "requestIds",
          "outputs": [
            {
              "internalType": "uint256",
              "name": "",
              "type": "uint256"
            }
          ],
          "stateMutability": "view",
          "type": "function"
        },
        {
          "inputs": [
            {
              "internalType": "address",
              "name": "_devWallet",
              "type": "address"
            }
          ],
          "name": "setDeveloperWallet",
          "outputs": [],
          "stateMutability": "nonpayable",
          "type": "function"
        },
        {
          "inputs": [
            {
              "internalType": "uint8",
              "name": "_slippage",
              "type": "uint8"
            }
          ],
          "name": "setMinSlippgae",
          "outputs": [],
          "stateMutability": "nonpayable",
          "type": "function"
        },
        {
          "inputs": [],
          "name": "totalAttempts",
          "outputs": [
            {
              "internalType": "uint256",
              "name": "",
              "type": "uint256"
            }
          ],
          "stateMutability": "view",
          "type": "function"
        },
        {
          "inputs": [],
          "name": "totalPlayers",
          "outputs": [
            {
              "internalType": "uint256",
              "name": "",
              "type": "uint256"
            }
          ],
          "stateMutability": "view",
          "type": "function"
        },
        {
          "inputs": [
            {
              "internalType": "address",
              "name": "newOwner",
              "type": "address"
            }
          ],
          "name": "transferOwnership",
          "outputs": [],
          "stateMutability": "nonpayable",
          "type": "function"
        },
        {
          "inputs": [
            {
              "components": [
                {
                  "internalType": "uint256",
                  "name": "baseQueryFee",
                  "type": "uint256"
                },
                {
                  "internalType": "uint256",
                  "name": "queryFeeIncrement",
                  "type": "uint256"
                },
                {
                  "internalType": "uint256",
                  "name": "maxQueryFee",
                  "type": "uint256"
                },
                {
                  "internalType": "uint256",
                  "name": "duration",
                  "type": "uint256"
                },
                {
                  "internalType": "uint256",
                  "name": "startTime",
                  "type": "uint256"
                },
                {
                  "internalType": "uint8",
                  "name": "prizePoolPercentage",
                  "type": "uint8"
                },
                {
                  "internalType": "uint8",
                  "name": "developerWalletPercentage",
                  "type": "uint8"
                }
              ],
              "internalType": "struct Game.GameConfig",
              "name": "_config",
              "type": "tuple"
            }
          ],
          "name": "updateConfig",
          "outputs": [],
          "stateMutability": "nonpayable",
          "type": "function"
        },
        {
          "inputs": [],
          "name": "winningAttempt",
          "outputs": [
            {
              "internalType": "address",
              "name": "playerAddress",
              "type": "address"
            },
            {
              "internalType": "uint256",
              "name": "requestId",
              "type": "uint256"
            },
            {
              "internalType": "uint256",
              "name": "fee",
              "type": "uint256"
            },
            {
              "internalType": "uint256",
              "name": "timestamp",
              "type": "uint256"
            },
            {
              "internalType": "bool",
              "name": "isWinner",
              "type": "bool"
            },
            {
              "internalType": "bool",
              "name": "isRefunded",
              "type": "bool"
            }
          ],
          "stateMutability": "view",
          "type": "function"
        }
      ],
      "evm": {
        "bytecode": {
          "linkReferences": {},
          "object": "608060405260405162001d0238038062001d02833981016040819052620000269162000424565b826001600160a01b0381166200005757604051631e4fbdf760e01b8152600060048201526024015b60405180910390fd5b6200006281620003a5565b50600180556001600160a01b038216620000bf5760405162461bcd60e51b815260206004820152601860248201527f496e76616c696420446576656c6f7065722057616c6c6574000000000000000060448201526064016200004e565b6000816040015111620001155760405162461bcd60e51b815260206004820152601560248201527f496e76616c6964204d617820517565727920466565000000000000000000000060448201526064016200004e565b61012c816060015110156200016d5760405162461bcd60e51b815260206004820152601560248201527f496e76616c69642047616d65204475726174696f6e000000000000000000000060448201526064016200004e565b60648160c0015160ff161115620001c75760405162461bcd60e51b815260206004820152601960248201527f4d757374206265206265747765656e203020616e64203130300000000000000060448201526064016200004e565b60648160a0015160ff161115620002215760405162461bcd60e51b815260206004820152601960248201527f4d757374206265206265747765656e203020616e64203130300000000000000060448201526064016200004e565b8060a001518160c0015162000237919062000504565b60ff16606414620002b15760405162461bcd60e51b815260206004820152603460248201527f446576656c6f70657220616e64205072697a6520506f6f6c2070657263656e7460448201527f61676573206d7573742073756d20746f2031303000000000000000000000000060648201526084016200004e565b600880546001600160a01b0319166001600160a01b0384161790558051600e5560208082018051600f5560408084018051601055606080860180516011556080808801805160125560a0808a0180516013805460c0808f01805160ff95861661ffff1990941693909317610100938616840217909355346009819055600c558b514281528f519e81019e909e529b519a8d019a909a529751968b01969096529351928901929092525190870152518116938501939093525190911660e08301527f66f1a4d000544ca58f52ab77f4995b92156555b6f323f224954f00f3fb0e2ec0910160405180910390a150505062000532565b600080546001600160a01b038381166001600160a01b0319831681178455604051919092169283917f8be0079c531659141344cd1fd0a4f28419497f9722a3daafe3b4186f6b6457e09190a35050565b80516001600160a01b03811681146200040d57600080fd5b919050565b805160ff811681146200040d57600080fd5b60008060008385036101208112156200043c57600080fd5b6200044785620003f5565b93506200045760208601620003f5565b925060e0603f19820112156200046c57600080fd5b5060405160e081016001600160401b03811182821017156200049e57634e487b7160e01b600052604160045260246000fd5b806040525060408501518152606085015160208201526080850151604082015260a0850151606082015260c08501516080820152620004e060e0860162000412565b60a0820152620004f4610100860162000412565b60c0820152809150509250925092565b60ff81811683821601908111156200052c57634e487b7160e01b600052601160045260246000fd5b92915050565b6117c080620005426000396000f3fe6080604052600436106101755760003560e01c8063719ce73e116100cb578063c1c3f9081161007f578063e374b09711610059578063e374b09714610564578063f2fde38b14610584578063f60cdcf6146105a457600080fd5b8063c1c3f9081461049c578063c9cb6eeb146104bc578063cfb476e91461052857600080fd5b8063aabe2fe3116100b0578063aabe2fe314610447578063b2d5ae4414610467578063bc7ba2a41461047c57600080fd5b8063719ce73e146104135780638da5cb5b1461042957600080fd5b8063290d9fcc1161012d57806357c43c1b1161010757806357c43c1b146103b25780636cd56878146103de578063715018a6146103fe57600080fd5b8063290d9fcc146102d45780632f2e094d146102ea5780632f8e16531461039057600080fd5b80631228f9101161015e5780631228f9101461024b578063185870f91461026f578063248a308b146102a757600080fd5b806306fdde031461017a5780631176829d146101d9575b600080fd5b34801561018657600080fd5b506101c36040518060400160405280600781526020017f4c7972612030310000000000000000000000000000000000000000000000000081525081565b6040516101d09190611480565b60405180910390f35b3480156101e557600080fd5b50600e54600f5460105460115460125460135461021095949392919060ff8082169161010090041687565b604080519788526020880196909652948601939093526060850191909152608084015260ff90811660a08401521660c082015260e0016101d0565b34801561025757600080fd5b50610261600a5481565b6040519081526020016101d0565b34801561027b57600080fd5b5060085461028f906001600160a01b031681565b6040516001600160a01b0390911681526020016101d0565b3480156102b357600080fd5b506102616102c23660046114ea565b60166020526000908152604090205481565b3480156102e057600080fd5b5061026160095481565b3480156102f657600080fd5b50610355610305366004611505565b6015602090815260009283526040808420909152908252902080546001820154600283015460038401546004909401546001600160a01b0390931693919290919060ff8082169161010090041686565b604080516001600160a01b039097168752602087019590955293850192909252606084015215156080830152151560a082015260c0016101d0565b34801561039c57600080fd5b506103b06103ab366004611540565b6105ba565b005b3480156103be57600080fd5b50600d546103cc9060ff1681565b60405160ff90911681526020016101d0565b3480156103ea57600080fd5b506103b06103f93660046114ea565b610614565b34801561040a57600080fd5b506103b06106a6565b34801561041f57600080fd5b50610261600c5481565b34801561043557600080fd5b506000546001600160a01b031661028f565b34801561045357600080fd5b5060025461028f906001600160a01b031681565b34801561047357600080fd5b506103b06106ba565b34801561048857600080fd5b506103b06104973660046115dd565b61092f565b3480156104a857600080fd5b506102616104b7366004611505565b6109c7565b6104cf6104ca3660046115f8565b6109f8565b6040516101d09190600060c0820190506001600160a01b03835116825260208301516020830152604083015160408301526060830151606083015260808301511515608083015260a0830151151560a083015292915050565b34801561053457600080fd5b50600354600454600554600654600754610355946001600160a01b03169392919060ff8082169161010090041686565b34801561057057600080fd5b506103b061057f366004611674565b61102b565b34801561059057600080fd5b506103b061059f3660046114ea565b6112e3565b3480156105b057600080fd5b50610261600b5481565b6105c261133a565b8051600e556020810151600f5560408101516010556060810151601155608081015160125560a08101516013805460c09093015160ff9081166101000261ffff19909416921691909117919091179055565b61061c61133a565b6001600160a01b0381166106775760405162461bcd60e51b815260206004820152601260248201527f496e76616c6964204465762057616c6c6574000000000000000000000000000060448201526064015b60405180910390fd5b6008805473ffffffffffffffffffffffffffffffffffffffff19166001600160a01b0392909216919091179055565b6106ae61133a565b6106b86000611380565b565b6106c26113dd565b6012544210156106e557604051633a5f7b5760e01b815260040160405180910390fd5b60115460125442916106f6916116b6565b111561072e576040517fd25f434400000000000000000000000000000000000000000000000000000000815260040160405180910390fd5b33600090815260166020526040812054900361075d5760405163abca351760e01b815260040160405180910390fd5b6002546001600160a01b031615610787576040516373411a2f60e11b815260040160405180910390fd5b6000805b3360009081526014602052604090205481101561084c57336000908152601560209081526040808320601490925282208054839190859081106107d0576107d06116c9565b60009182526020808320909101548352820192909252604001902080549091506001600160a01b03163314801561081157506004810154610100900460ff16155b156108395760048101805461ff001916610100179055600281015461083690846116b6565b92505b5080610844816116df565b91505061078b565b5080600003610887576040517fa85e6f1a00000000000000000000000000000000000000000000000000000000815260040160405180910390fd5b8047106108f3576108983382611420565b6108b557604051630ce8f45160e31b815260040160405180910390fd5b60408051338152602081018390527f48d31f1c958cd44f1f83a52ae2dfaf61e88a1b82c07a6d5711a4abef60b6531e910160405180910390a1610925565b6040517f0e48ce7800000000000000000000000000000000000000000000000000000000815260040160405180910390fd5b506106b860018055565b61093761133a565b60648160ff1611156109b15760405162461bcd60e51b815260206004820152602260248201527f536c697070616765206d757374206265206265747765656e203020616e64203160448201527f3030000000000000000000000000000000000000000000000000000000000000606482015260840161066e565b600d805460ff191660ff92909216919091179055565b601460205281600052604060002081815481106109e357600080fd5b90600052602060002001600091509150505481565b6040805160c081018252600080825260208201819052918101829052606081018290526080810182905260a0810191909152610a326113dd565b601254421015610a5557604051633a5f7b5760e01b815260040160405180910390fd5b601154601254610a6591906116b6565b421115610a85576040516308426a3f60e11b815260040160405180910390fd5b6002546001600160a01b031615610aaf576040516373411a2f60e11b815260040160405180910390fd5b600e54341015610aeb576040517f8cd9b0a800000000000000000000000000000000000000000000000000000000815260040160405180910390fd5b3360009081526015602090815260408083208784529091529020546001600160a01b031615610b46576040517fa68add0c00000000000000000000000000000000000000000000000000000000815260040160405180910390fd5b600d54600e54600091606491610b5f9160ff16906116f8565b610b69919061170f565b9050600081600e60000154610b7e91906116b6565b905080341015610bba576040517f2dddefbb00000000000000000000000000000000000000000000000000000000815260040160405180910390fd5b600e54600090610bca9034611731565b90508015610c00576000610bde3383611420565b905080610bfe57604051630ce8f45160e31b815260040160405180910390fd5b505b6000610c0c8234611731565b9050610c506040518060c001604052806000815260200160008152602001600081526020016000815260200160006001600160a01b03168152602001606081525090565b601354606490610c6890610100900460ff16846116f8565b610c72919061170f565b60608201819052610c839083611731565b6040820152606081015115610cd4576008546060820151600091610cb2916001600160a01b0390911690611420565b905080610cd257604051630ce8f45160e31b815260040160405180910390fd5b505b8060400151600c6000828254610cea91906116b6565b9091555050601054600e541015610d3557600f54600e5460009168056bc75e2d6310000091610d1991906116f8565b610d23919061170f565b600e54610d3091906116b6565b600e55505b87878080601f016020809104026020016040519081016040528093929190818152602001838380828437600092018290525060a0860194909452505033825250601660205260408120549003610d9e576001600b6000828254610d9891906116b6565b90915550505b336000908152601660205260408120805460019290610dbe9084906116b6565b925050819055506001600a6000828254610dd891906116b6565b92505081905550888160000181815250503381608001906001600160a01b031690816001600160a01b0316815250506014600082608001516001600160a01b03166001600160a01b031681526020019081526020016000208990806001815401808255809150506001900390600052602060002001600090919091909150556040518060c0016040528082608001516001600160a01b0316815260200182600001518152602001826040015181526020014281526020016000151581526020016000151581525060156000336001600160a01b03166001600160a01b0316815260200190815260200160002060008b815260200190815260200160002060008201518160000160006101000a8154816001600160a01b0302191690836001600160a01b0316021790555060208201518160010155604082015181600201556060820151816003015560808201518160040160006101000a81548160ff02191690831515021790555060a08201518160040160016101000a81548160ff0219169083151502179055509050507fc03ab6e479e5edd2c91dcf84c08a250a41d3295842ca70554107f6fb3af0d5718160000151338a8a604051610f9c9493929190611744565b60405180910390a150503360009081526015602090815260408083208a8452825291829020825160c08101845281546001600160a01b0316815260018083015493820193909352600282015493810193909352600381015460608401526004015460ff8082161515608085015261010090910416151560a08301528055935061102492505050565b9392505050565b61103361133a565b60125442101561105657604051633a5f7b5760e01b815260040160405180910390fd5b60115460125461106691906116b6565b421115611086576040516308426a3f60e11b815260040160405180910390fd5b6001600160a01b03808216600081815260156020908152604080832087845290915290208054909216146111225760405162461bcd60e51b815260206004820152602e60248201527f2057696e6e6572206164647265737320646f6573206e6f74206d61746368207060448201527f6c61796572206164647265737320000000000000000000000000000000000000606482015260840161066e565b80546001600160a01b031661114a5760405163abca351760e01b815260040160405180910390fd5b6002546001600160a01b031615611174576040516373411a2f60e11b815260040160405180910390fd5b600280546001600160a01b0380851673ffffffffffffffffffffffffffffffffffffffff1992831617835583546003805490931691161781556001838101546004908155928401546005559083015460065590820180546007805460ff928316151560ff1980831682178455855461010090819004909516151590940261ff001990911661ffff19909216919091171790558154169091179055600c54158061121b575047155b15611252576040517f32f4537300000000000000000000000000000000000000000000000000000000815260040160405180910390fd5b600047600c541161126557600c54611267565b475b600254909150611280906001600160a01b031682611420565b61129d57604051630ce8f45160e31b815260040160405180910390fd5b6002546040516001600160a01b0390911681527f2d66076f24af48812dc2fdd69ac3d62bc732d6766ce65fdf93a45675faba22bd9060200160405180910390a150505050565b6112eb61133a565b6001600160a01b03811661132e576040517f1e4fbdf70000000000000000000000000000000000000000000000000000000081526000600482015260240161066e565b61133781611380565b50565b6000546001600160a01b031633146106b8576040517f118cdaa700000000000000000000000000000000000000000000000000000000815233600482015260240161066e565b600080546001600160a01b0383811673ffffffffffffffffffffffffffffffffffffffff19831681178455604051919092169283917f8be0079c531659141344cd1fd0a4f28419497f9722a3daafe3b4186f6b6457e09190a35050565b600260015403611419576040517f3ee5aeb500000000000000000000000000000000000000000000000000000000815260040160405180910390fd5b6002600155565b600080836001600160a01b03168360405160006040518083038185875af1925050503d806000811461146e576040519150601f19603f3d011682016040523d82523d6000602084013e611473565b606091505b5090925050505b92915050565b600060208083528351808285015260005b818110156114ad57858101830151858201604001528201611491565b506000604082860101526040601f19601f8301168501019250505092915050565b80356001600160a01b03811681146114e557600080fd5b919050565b6000602082840312156114fc57600080fd5b611024826114ce565b6000806040838503121561151857600080fd5b611521836114ce565b946020939093013593505050565b803560ff811681146114e557600080fd5b600060e0828403121561155257600080fd5b60405160e0810181811067ffffffffffffffff8211171561158357634e487b7160e01b600052604160045260246000fd5b806040525082358152602083013560208201526040830135604082015260608301356060820152608083013560808201526115c060a0840161152f565b60a08201526115d160c0840161152f565b60c08201529392505050565b6000602082840312156115ef57600080fd5b6110248261152f565b60008060006040848603121561160d57600080fd5b83359250602084013567ffffffffffffffff8082111561162c57600080fd5b818601915086601f83011261164057600080fd5b81358181111561164f57600080fd5b87602082850101111561166157600080fd5b6020830194508093505050509250925092565b6000806040838503121561168757600080fd5b82359150611697602084016114ce565b90509250929050565b634e487b7160e01b600052601160045260246000fd5b8082018082111561147a5761147a6116a0565b634e487b7160e01b600052603260045260246000fd5b6000600182016116f1576116f16116a0565b5060010190565b808202811582820484141761147a5761147a6116a0565b60008261172c57634e487b7160e01b600052601260045260246000fd5b500490565b8181038181111561147a5761147a6116a0565b8481526001600160a01b038416602082015260606040820152816060820152818360808301376000818301608090810191909152601f909201601f19160101939250505056fea2646970667358221220fd980434cb0e2cf866ce983f22e8a2e58b6748e47e47d717c7a969367525540964736f6c63430008150033",
          "opcodes": "PUSH1 0x80 PUSH1 0x40 MSTORE PUSH1 0x40 MLOAD PUSH3 0x1D02 CODESIZE SUB DUP1 PUSH3 0x1D02 DUP4 CODECOPY DUP2 ADD PUSH1 0x40 DUP2 SWAP1 MSTORE PUSH3 0x26 SWAP2 PUSH3 0x424 JUMP JUMPDEST DUP3 PUSH1 0x1 PUSH1 0x1 PUSH1 0xA0 SHL SUB DUP2 AND PUSH3 0x57 JUMPI PUSH1 0x40 MLOAD PUSH4 0x1E4FBDF7 PUSH1 0xE0 SHL DUP2 MSTORE PUSH1 0x0 PUSH1 0x4 DUP3 ADD MSTORE PUSH1 0x24 ADD JUMPDEST PUSH1 0x40 MLOAD DUP1 SWAP2 SUB SWAP1 REVERT JUMPDEST PUSH3 0x62 DUP2 PUSH3 0x3A5 JUMP JUMPDEST POP PUSH1 0x1 DUP1 SSTORE PUSH1 0x1 PUSH1 0x1 PUSH1 0xA0 SHL SUB DUP3 AND PUSH3 0xBF JUMPI PUSH1 0x40 MLOAD PUSH3 0x461BCD PUSH1 0xE5 SHL DUP2 MSTORE PUSH1 0x20 PUSH1 0x4 DUP3 ADD MSTORE PUSH1 0x18 PUSH1 0x24 DUP3 ADD MSTORE PUSH32 0x496E76616C696420446576656C6F7065722057616C6C65740000000000000000 PUSH1 0x44 DUP3 ADD MSTORE PUSH1 0x64 ADD PUSH3 0x4E JUMP JUMPDEST PUSH1 0x0 DUP2 PUSH1 0x40 ADD MLOAD GT PUSH3 0x115 JUMPI PUSH1 0x40 MLOAD PUSH3 0x461BCD PUSH1 0xE5 SHL DUP2 MSTORE PUSH1 0x20 PUSH1 0x4 DUP3 ADD MSTORE PUSH1 0x15 PUSH1 0x24 DUP3 ADD MSTORE PUSH32 0x496E76616C6964204D6178205175657279204665650000000000000000000000 PUSH1 0x44 DUP3 ADD MSTORE PUSH1 0x64 ADD PUSH3 0x4E JUMP JUMPDEST PUSH2 0x12C DUP2 PUSH1 0x60 ADD MLOAD LT ISZERO PUSH3 0x16D JUMPI PUSH1 0x40 MLOAD PUSH3 0x461BCD PUSH1 0xE5 SHL DUP2 MSTORE PUSH1 0x20 PUSH1 0x4 DUP3 ADD MSTORE PUSH1 0x15 PUSH1 0x24 DUP3 ADD MSTORE PUSH32 0x496E76616C69642047616D65204475726174696F6E0000000000000000000000 PUSH1 0x44 DUP3 ADD MSTORE PUSH1 0x64 ADD PUSH3 0x4E JUMP JUMPDEST PUSH1 0x64 DUP2 PUSH1 0xC0 ADD MLOAD PUSH1 0xFF AND GT ISZERO PUSH3 0x1C7 JUMPI PUSH1 0x40 MLOAD PUSH3 0x461BCD PUSH1 0xE5 SHL DUP2 MSTORE PUSH1 0x20 PUSH1 0x4 DUP3 ADD MSTORE PUSH1 0x19 PUSH1 0x24 DUP3 ADD MSTORE PUSH32 0x4D757374206265206265747765656E203020616E642031303000000000000000 PUSH1 0x44 DUP3 ADD MSTORE PUSH1 0x64 ADD PUSH3 0x4E JUMP JUMPDEST PUSH1 0x64 DUP2 PUSH1 0xA0 ADD MLOAD PUSH1 0xFF AND GT ISZERO PUSH3 0x221 JUMPI PUSH1 0x40 MLOAD PUSH3 0x461BCD PUSH1 0xE5 SHL DUP2 MSTORE PUSH1 0x20 PUSH1 0x4 DUP3 ADD MSTORE PUSH1 0x19 PUSH1 0x24 DUP3 ADD MSTORE PUSH32 0x4D757374206265206265747765656E203020616E642031303000000000000000 PUSH1 0x44 DUP3 ADD MSTORE PUSH1 0x64 ADD PUSH3 0x4E JUMP JUMPDEST DUP1 PUSH1 0xA0 ADD MLOAD DUP2 PUSH1 0xC0 ADD MLOAD PUSH3 0x237 SWAP2 SWAP1 PUSH3 0x504 JUMP JUMPDEST PUSH1 0xFF AND PUSH1 0x64 EQ PUSH3 0x2B1 JUMPI PUSH1 0x40 MLOAD PUSH3 0x461BCD PUSH1 0xE5 SHL DUP2 MSTORE PUSH1 0x20 PUSH1 0x4 DUP3 ADD MSTORE PUSH1 0x34 PUSH1 0x24 DUP3 ADD MSTORE PUSH32 0x446576656C6F70657220616E64205072697A6520506F6F6C2070657263656E74 PUSH1 0x44 DUP3 ADD MSTORE PUSH32 0x61676573206D7573742073756D20746F20313030000000000000000000000000 PUSH1 0x64 DUP3 ADD MSTORE PUSH1 0x84 ADD PUSH3 0x4E JUMP JUMPDEST PUSH1 0x8 DUP1 SLOAD PUSH1 0x1 PUSH1 0x1 PUSH1 0xA0 SHL SUB NOT AND PUSH1 0x1 PUSH1 0x1 PUSH1 0xA0 SHL SUB DUP5 AND OR SWAP1 SSTORE DUP1 MLOAD PUSH1 0xE SSTORE PUSH1 0x20 DUP1 DUP3 ADD DUP1 MLOAD PUSH1 0xF SSTORE PUSH1 0x40 DUP1 DUP5 ADD DUP1 MLOAD PUSH1 0x10 SSTORE PUSH1 0x60 DUP1 DUP7 ADD DUP1 MLOAD PUSH1 0x11 SSTORE PUSH1 0x80 DUP1 DUP9 ADD DUP1 MLOAD PUSH1 0x12 SSTORE PUSH1 0xA0 DUP1 DUP11 ADD DUP1 MLOAD PUSH1 0x13 DUP1 SLOAD PUSH1 0xC0 DUP1 DUP16 ADD DUP1 MLOAD PUSH1 0xFF SWAP6 DUP7 AND PUSH2 0xFFFF NOT SWAP1 SWAP5 AND SWAP4 SWAP1 SWAP4 OR PUSH2 0x100 SWAP4 DUP7 AND DUP5 MUL OR SWAP1 SWAP4 SSTORE CALLVALUE PUSH1 0x9 DUP2 SWAP1 SSTORE PUSH1 0xC SSTORE DUP12 MLOAD TIMESTAMP DUP2 MSTORE DUP16 MLOAD SWAP15 DUP2 ADD SWAP15 SWAP1 SWAP15 MSTORE SWAP12 MLOAD SWAP11 DUP14 ADD SWAP11 SWAP1 SWAP11 MSTORE SWAP8 MLOAD SWAP7 DUP12 ADD SWAP7 SWAP1 SWAP7 MSTORE SWAP4 MLOAD SWAP3 DUP10 ADD SWAP3 SWAP1 SWAP3 MSTORE MLOAD SWAP1 DUP8 ADD MSTORE MLOAD DUP2 AND SWAP4 DUP6 ADD SWAP4 SWAP1 SWAP4 MSTORE MLOAD SWAP1 SWAP2 AND PUSH1 0xE0 DUP4 ADD MSTORE PUSH32 0x66F1A4D000544CA58F52AB77F4995B92156555B6F323F224954F00F3FB0E2EC0 SWAP2 ADD PUSH1 0x40 MLOAD DUP1 SWAP2 SUB SWAP1 LOG1 POP POP POP PUSH3 0x532 JUMP JUMPDEST PUSH1 0x0 DUP1 SLOAD PUSH1 0x1 PUSH1 0x1 PUSH1 0xA0 SHL SUB DUP4 DUP2 AND PUSH1 0x1 PUSH1 0x1 PUSH1 0xA0 SHL SUB NOT DUP4 AND DUP2 OR DUP5 SSTORE PUSH1 0x40 MLOAD SWAP2 SWAP1 SWAP3 AND SWAP3 DUP4 SWAP2 PUSH32 0x8BE0079C531659141344CD1FD0A4F28419497F9722A3DAAFE3B4186F6B6457E0 SWAP2 SWAP1 LOG3 POP POP JUMP JUMPDEST DUP1 MLOAD PUSH1 0x1 PUSH1 0x1 PUSH1 0xA0 SHL SUB DUP2 AND DUP2 EQ PUSH3 0x40D JUMPI PUSH1 0x0 DUP1 REVERT JUMPDEST SWAP2 SWAP1 POP JUMP JUMPDEST DUP1 MLOAD PUSH1 0xFF DUP2 AND DUP2 EQ PUSH3 0x40D JUMPI PUSH1 0x0 DUP1 REVERT JUMPDEST PUSH1 0x0 DUP1 PUSH1 0x0 DUP4 DUP6 SUB PUSH2 0x120 DUP2 SLT ISZERO PUSH3 0x43C JUMPI PUSH1 0x0 DUP1 REVERT JUMPDEST PUSH3 0x447 DUP6 PUSH3 0x3F5 JUMP JUMPDEST SWAP4 POP PUSH3 0x457 PUSH1 0x20 DUP7 ADD PUSH3 0x3F5 JUMP JUMPDEST SWAP3 POP PUSH1 0xE0 PUSH1 0x3F NOT DUP3 ADD SLT ISZERO PUSH3 0x46C JUMPI PUSH1 0x0 DUP1 REVERT JUMPDEST POP PUSH1 0x40 MLOAD PUSH1 0xE0 DUP2 ADD PUSH1 0x1 PUSH1 0x1 PUSH1 0x40 SHL SUB DUP2 GT DUP3 DUP3 LT OR ISZERO PUSH3 0x49E JUMPI PUSH4 0x4E487B71 PUSH1 0xE0 SHL PUSH1 0x0 MSTORE PUSH1 0x41 PUSH1 0x4 MSTORE PUSH1 0x24 PUSH1 0x0 REVERT JUMPDEST DUP1 PUSH1 0x40 MSTORE POP PUSH1 0x40 DUP6 ADD MLOAD DUP2 MSTORE PUSH1 0x60 DUP6 ADD MLOAD PUSH1 0x20 DUP3 ADD MSTORE PUSH1 0x80 DUP6 ADD MLOAD PUSH1 0x40 DUP3 ADD MSTORE PUSH1 0xA0 DUP6 ADD MLOAD PUSH1 0x60 DUP3 ADD MSTORE PUSH1 0xC0 DUP6 ADD MLOAD PUSH1 0x80 DUP3 ADD MSTORE PUSH3 0x4E0 PUSH1 0xE0 DUP7 ADD PUSH3 0x412 JUMP JUMPDEST PUSH1 0xA0 DUP3 ADD MSTORE PUSH3 0x4F4 PUSH2 0x100 DUP7 ADD PUSH3 0x412 JUMP JUMPDEST PUSH1 0xC0 DUP3 ADD MSTORE DUP1 SWAP2 POP POP SWAP3 POP SWAP3 POP SWAP3 JUMP JUMPDEST PUSH1 0xFF DUP2 DUP2 AND DUP4 DUP3 AND ADD SWAP1 DUP2 GT ISZERO PUSH3 0x52C JUMPI PUSH4 0x4E487B71 PUSH1 0xE0 SHL PUSH1 0x0 MSTORE PUSH1 0x11 PUSH1 0x4 MSTORE PUSH1 0x24 PUSH1 0x0 REVERT JUMPDEST SWAP3 SWAP2 POP POP JUMP JUMPDEST PUSH2 0x17C0 DUP1 PUSH3 0x542 PUSH1 0x0 CODECOPY PUSH1 0x0 RETURN INVALID PUSH1 0x80 PUSH1 0x40 MSTORE PUSH1 0x4 CALLDATASIZE LT PUSH2 0x175 JUMPI PUSH1 0x0 CALLDATALOAD PUSH1 0xE0 SHR DUP1 PUSH4 0x719CE73E GT PUSH2 0xCB JUMPI DUP1 PUSH4 0xC1C3F908 GT PUSH2 0x7F JUMPI DUP1 PUSH4 0xE374B097 GT PUSH2 0x59 JUMPI DUP1 PUSH4 0xE374B097 EQ PUSH2 0x564 JUMPI DUP1 PUSH4 0xF2FDE38B EQ PUSH2 0x584 JUMPI DUP1 PUSH4 0xF60CDCF6 EQ PUSH2 0x5A4 JUMPI PUSH1 0x0 DUP1 REVERT JUMPDEST DUP1 PUSH4 0xC1C3F908 EQ PUSH2 0x49C JUMPI DUP1 PUSH4 0xC9CB6EEB EQ PUSH2 0x4BC JUMPI DUP1 PUSH4 0xCFB476E9 EQ PUSH2 0x528 JUMPI PUSH1 0x0 DUP1 REVERT JUMPDEST DUP1 PUSH4 0xAABE2FE3 GT PUSH2 0xB0 JUMPI DUP1 PUSH4 0xAABE2FE3 EQ PUSH2 0x447 JUMPI DUP1 PUSH4 0xB2D5AE44 EQ PUSH2 0x467 JUMPI DUP1 PUSH4 0xBC7BA2A4 EQ PUSH2 0x47C JUMPI PUSH1 0x0 DUP1 REVERT JUMPDEST DUP1 PUSH4 0x719CE73E EQ PUSH2 0x413 JUMPI DUP1 PUSH4 0x8DA5CB5B EQ PUSH2 0x429 JUMPI PUSH1 0x0 DUP1 REVERT JUMPDEST DUP1 PUSH4 0x290D9FCC GT PUSH2 0x12D JUMPI DUP1 PUSH4 0x57C43C1B GT PUSH2 0x107 JUMPI DUP1 PUSH4 0x57C43C1B EQ PUSH2 0x3B2 JUMPI DUP1 PUSH4 0x6CD56878 EQ PUSH2 0x3DE JUMPI DUP1 PUSH4 0x715018A6 EQ PUSH2 0x3FE JUMPI PUSH1 0x0 DUP1 REVERT JUMPDEST DUP1 PUSH4 0x290D9FCC EQ PUSH2 0x2D4 JUMPI DUP1 PUSH4 0x2F2E094D EQ PUSH2 0x2EA JUMPI DUP1 PUSH4 0x2F8E1653 EQ PUSH2 0x390 JUMPI PUSH1 0x0 DUP1 REVERT JUMPDEST DUP1 PUSH4 0x1228F910 GT PUSH2 0x15E JUMPI DUP1 PUSH4 0x1228F910 EQ PUSH2 0x24B JUMPI DUP1 PUSH4 0x185870F9 EQ PUSH2 0x26F JUMPI DUP1 PUSH4 0x248A308B EQ PUSH2 0x2A7 JUMPI PUSH1 0x0 DUP1 REVERT JUMPDEST DUP1 PUSH4 0x6FDDE03 EQ PUSH2 0x17A JUMPI DUP1 PUSH4 0x1176829D EQ PUSH2 0x1D9 JUMPI JUMPDEST PUSH1 0x0 DUP1 REVERT JUMPDEST CALLVALUE DUP1 ISZERO PUSH2 0x186 JUMPI PUSH1 0x0 DUP1 REVERT JUMPDEST POP PUSH2 0x1C3 PUSH1 0x40 MLOAD DUP1 PUSH1 0x40 ADD PUSH1 0x40 MSTORE DUP1 PUSH1 0x7 DUP2 MSTORE PUSH1 0x20 ADD PUSH32 0x4C79726120303100000000000000000000000000000000000000000000000000 DUP2 MSTORE POP DUP2 JUMP JUMPDEST PUSH1 0x40 MLOAD PUSH2 0x1D0 SWAP2 SWAP1 PUSH2 0x1480 JUMP JUMPDEST PUSH1 0x40 MLOAD DUP1 SWAP2 SUB SWAP1 RETURN JUMPDEST CALLVALUE DUP1 ISZERO PUSH2 0x1E5 JUMPI PUSH1 0x0 DUP1 REVERT JUMPDEST POP PUSH1 0xE SLOAD PUSH1 0xF SLOAD PUSH1 0x10 SLOAD PUSH1 0x11 SLOAD PUSH1 0x12 SLOAD PUSH1 0x13 SLOAD PUSH2 0x210 SWAP6 SWAP5 SWAP4 SWAP3 SWAP2 SWAP1 PUSH1 0xFF DUP1 DUP3 AND SWAP2 PUSH2 0x100 SWAP1 DIV AND DUP8 JUMP JUMPDEST PUSH1 0x40 DUP1 MLOAD SWAP8 DUP9 MSTORE PUSH1 0x20 DUP9 ADD SWAP7 SWAP1 SWAP7 MSTORE SWAP5 DUP7 ADD SWAP4 SWAP1 SWAP4 MSTORE PUSH1 0x60 DUP6 ADD SWAP2 SWAP1 SWAP2 MSTORE PUSH1 0x80 DUP5 ADD MSTORE PUSH1 0xFF SWAP1 DUP2 AND PUSH1 0xA0 DUP5 ADD MSTORE AND PUSH1 0xC0 DUP3 ADD MSTORE PUSH1 0xE0 ADD PUSH2 0x1D0 JUMP JUMPDEST CALLVALUE DUP1 ISZERO PUSH2 0x257 JUMPI PUSH1 0x0 DUP1 REVERT JUMPDEST POP PUSH2 0x261 PUSH1 0xA SLOAD DUP2 JUMP JUMPDEST PUSH1 0x40 MLOAD SWAP1 DUP2 MSTORE PUSH1 0x20 ADD PUSH2 0x1D0 JUMP JUMPDEST CALLVALUE DUP1 ISZERO PUSH2 0x27B JUMPI PUSH1 0x0 DUP1 REVERT JUMPDEST POP PUSH1 0x8 SLOAD PUSH2 0x28F SWAP1 PUSH1 0x1 PUSH1 0x1 PUSH1 0xA0 SHL SUB AND DUP2 JUMP JUMPDEST PUSH1 0x40 MLOAD PUSH1 0x1 PUSH1 0x1 PUSH1 0xA0 SHL SUB SWAP1 SWAP2 AND DUP2 MSTORE PUSH1 0x20 ADD PUSH2 0x1D0 JUMP JUMPDEST CALLVALUE DUP1 ISZERO PUSH2 0x2B3 JUMPI PUSH1 0x0 DUP1 REVERT JUMPDEST POP PUSH2 0x261 PUSH2 0x2C2 CALLDATASIZE PUSH1 0x4 PUSH2 0x14EA JUMP JUMPDEST PUSH1 0x16 PUSH1 0x20 MSTORE PUSH1 0x0 SWAP1 DUP2 MSTORE PUSH1 0x40 SWAP1 KECCAK256 SLOAD DUP2 JUMP JUMPDEST CALLVALUE DUP1 ISZERO PUSH2 0x2E0 JUMPI PUSH1 0x0 DUP1 REVERT JUMPDEST POP PUSH2 0x261 PUSH1 0x9 SLOAD DUP2 JUMP JUMPDEST CALLVALUE DUP1 ISZERO PUSH2 0x2F6 JUMPI PUSH1 0x0 DUP1 REVERT JUMPDEST POP PUSH2 0x355 PUSH2 0x305 CALLDATASIZE PUSH1 0x4 PUSH2 0x1505 JUMP JUMPDEST PUSH1 0x15 PUSH1 0x20 SWAP1 DUP2 MSTORE PUSH1 0x0 SWAP3 DUP4 MSTORE PUSH1 0x40 DUP1 DUP5 KECCAK256 SWAP1 SWAP2 MSTORE SWAP1 DUP3 MSTORE SWAP1 KECCAK256 DUP1 SLOAD PUSH1 0x1 DUP3 ADD SLOAD PUSH1 0x2 DUP4 ADD SLOAD PUSH1 0x3 DUP5 ADD SLOAD PUSH1 0x4 SWAP1 SWAP5 ADD SLOAD PUSH1 0x1 PUSH1 0x1 PUSH1 0xA0 SHL SUB SWAP1 SWAP4 AND SWAP4 SWAP2 SWAP3 SWAP1 SWAP2 SWAP1 PUSH1 0xFF DUP1 DUP3 AND SWAP2 PUSH2 0x100 SWAP1 DIV AND DUP7 JUMP JUMPDEST PUSH1 0x40 DUP1 MLOAD PUSH1 0x1 PUSH1 0x1 PUSH1 0xA0 SHL SUB SWAP1 SWAP8 AND DUP8 MSTORE PUSH1 0x20 DUP8 ADD SWAP6 SWAP1 SWAP6 MSTORE SWAP4 DUP6 ADD SWAP3 SWAP1 SWAP3 MSTORE PUSH1 0x60 DUP5 ADD MSTORE ISZERO ISZERO PUSH1 0x80 DUP4 ADD MSTORE ISZERO ISZERO PUSH1 0xA0 DUP3 ADD MSTORE PUSH1 0xC0 ADD PUSH2 0x1D0 JUMP JUMPDEST CALLVALUE DUP1 ISZERO PUSH2 0x39C JUMPI PUSH1 0x0 DUP1 REVERT JUMPDEST POP PUSH2 0x3B0 PUSH2 0x3AB CALLDATASIZE PUSH1 0x4 PUSH2 0x1540 JUMP JUMPDEST PUSH2 0x5BA JUMP JUMPDEST STOP JUMPDEST CALLVALUE DUP1 ISZERO PUSH2 0x3BE JUMPI PUSH1 0x0 DUP1 REVERT JUMPDEST POP PUSH1 0xD SLOAD PUSH2 0x3CC SWAP1 PUSH1 0xFF AND DUP2 JUMP JUMPDEST PUSH1 0x40 MLOAD PUSH1 0xFF SWAP1 SWAP2 AND DUP2 MSTORE PUSH1 0x20 ADD PUSH2 0x1D0 JUMP JUMPDEST CALLVALUE DUP1 ISZERO PUSH2 0x3EA JUMPI PUSH1 0x0 DUP1 REVERT JUMPDEST POP PUSH2 0x3B0 PUSH2 0x3F9 CALLDATASIZE PUSH1 0x4 PUSH2 0x14EA JUMP JUMPDEST PUSH2 0x614 JUMP JUMPDEST CALLVALUE DUP1 ISZERO PUSH2 0x40A JUMPI PUSH1 0x0 DUP1 REVERT JUMPDEST POP PUSH2 0x3B0 PUSH2 0x6A6 JUMP JUMPDEST CALLVALUE DUP1 ISZERO PUSH2 0x41F JUMPI PUSH1 0x0 DUP1 REVERT JUMPDEST POP PUSH2 0x261 PUSH1 0xC SLOAD DUP2 JUMP JUMPDEST CALLVALUE DUP1 ISZERO PUSH2 0x435 JUMPI PUSH1 0x0 DUP1 REVERT JUMPDEST POP PUSH1 0x0 SLOAD PUSH1 0x1 PUSH1 0x1 PUSH1 0xA0 SHL SUB AND PUSH2 0x28F JUMP JUMPDEST CALLVALUE DUP1 ISZERO PUSH2 0x453 JUMPI PUSH1 0x0 DUP1 REVERT JUMPDEST POP PUSH1 0x2 SLOAD PUSH2 0x28F SWAP1 PUSH1 0x1 PUSH1 0x1 PUSH1 0xA0 SHL SUB AND DUP2 JUMP JUMPDEST CALLVALUE DUP1 ISZERO PUSH2 0x473 JUMPI PUSH1 0x0 DUP1 REVERT JUMPDEST POP PUSH2 0x3B0 PUSH2 0x6BA JUMP JUMPDEST CALLVALUE DUP1 ISZERO PUSH2 0x488 JUMPI PUSH1 0x0 DUP1 REVERT JUMPDEST POP PUSH2 0x3B0 PUSH2 0x497 CALLDATASIZE PUSH1 0x4 PUSH2 0x15DD JUMP JUMPDEST PUSH2 0x92F JUMP JUMPDEST CALLVALUE DUP1 ISZERO PUSH2 0x4A8 JUMPI PUSH1 0x0 DUP1 REVERT JUMPDEST POP PUSH2 0x261 PUSH2 0x4B7 CALLDATASIZE PUSH1 0x4 PUSH2 0x1505 JUMP JUMPDEST PUSH2 0x9C7 JUMP JUMPDEST PUSH2 0x4CF PUSH2 0x4CA CALLDATASIZE PUSH1 0x4 PUSH2 0x15F8 JUMP JUMPDEST PUSH2 0x9F8 JUMP JUMPDEST PUSH1 0x40 MLOAD PUSH2 0x1D0 SWAP2 SWAP1 PUSH1 0x0 PUSH1 0xC0 DUP3 ADD SWAP1 POP PUSH1 0x1 PUSH1 0x1 PUSH1 0xA0 SHL SUB DUP4 MLOAD AND DUP3 MSTORE PUSH1 0x20 DUP4 ADD MLOAD PUSH1 0x20 DUP4 ADD MSTORE PUSH1 0x40 DUP4 ADD MLOAD PUSH1 0x40 DUP4 ADD MSTORE PUSH1 0x60 DUP4 ADD MLOAD PUSH1 0x60 DUP4 ADD MSTORE PUSH1 0x80 DUP4 ADD MLOAD ISZERO ISZERO PUSH1 0x80 DUP4 ADD MSTORE PUSH1 0xA0 DUP4 ADD MLOAD ISZERO ISZERO PUSH1 0xA0 DUP4 ADD MSTORE SWAP3 SWAP2 POP POP JUMP JUMPDEST CALLVALUE DUP1 ISZERO PUSH2 0x534 JUMPI PUSH1 0x0 DUP1 REVERT JUMPDEST POP PUSH1 0x3 SLOAD PUSH1 0x4 SLOAD PUSH1 0x5 SLOAD PUSH1 0x6 SLOAD PUSH1 0x7 SLOAD PUSH2 0x355 SWAP5 PUSH1 0x1 PUSH1 0x1 PUSH1 0xA0 SHL SUB AND SWAP4 SWAP3 SWAP2 SWAP1 PUSH1 0xFF DUP1 DUP3 AND SWAP2 PUSH2 0x100 SWAP1 DIV AND DUP7 JUMP JUMPDEST CALLVALUE DUP1 ISZERO PUSH2 0x570 JUMPI PUSH1 0x0 DUP1 REVERT JUMPDEST POP PUSH2 0x3B0 PUSH2 0x57F CALLDATASIZE PUSH1 0x4 PUSH2 0x1674 JUMP JUMPDEST PUSH2 0x102B JUMP JUMPDEST CALLVALUE DUP1 ISZERO PUSH2 0x590 JUMPI PUSH1 0x0 DUP1 REVERT JUMPDEST POP PUSH2 0x3B0 PUSH2 0x59F CALLDATASIZE PUSH1 0x4 PUSH2 0x14EA JUMP JUMPDEST PUSH2 0x12E3 JUMP JUMPDEST CALLVALUE DUP1 ISZERO PUSH2 0x5B0 JUMPI PUSH1 0x0 DUP1 REVERT JUMPDEST POP PUSH2 0x261 PUSH1 0xB SLOAD DUP2 JUMP JUMPDEST PUSH2 0x5C2 PUSH2 0x133A JUMP JUMPDEST DUP1 MLOAD PUSH1 0xE SSTORE PUSH1 0x20 DUP2 ADD MLOAD PUSH1 0xF SSTORE PUSH1 0x40 DUP2 ADD MLOAD PUSH1 0x10 SSTORE PUSH1 0x60 DUP2 ADD MLOAD PUSH1 0x11 SSTORE PUSH1 0x80 DUP2 ADD MLOAD PUSH1 0x12 SSTORE PUSH1 0xA0 DUP2 ADD MLOAD PUSH1 0x13 DUP1 SLOAD PUSH1 0xC0 SWAP1 SWAP4 ADD MLOAD PUSH1 0xFF SWAP1 DUP2 AND PUSH2 0x100 MUL PUSH2 0xFFFF NOT SWAP1 SWAP5 AND SWAP3 AND SWAP2 SWAP1 SWAP2 OR SWAP2 SWAP1 SWAP2 OR SWAP1 SSTORE JUMP JUMPDEST PUSH2 0x61C PUSH2 0x133A JUMP JUMPDEST PUSH1 0x1 PUSH1 0x1 PUSH1 0xA0 SHL SUB DUP2 AND PUSH2 0x677 JUMPI PUSH1 0x40 MLOAD PUSH3 0x461BCD PUSH1 0xE5 SHL DUP2 MSTORE PUSH1 0x20 PUSH1 0x4 DUP3 ADD MSTORE PUSH1 0x12 PUSH1 0x24 DUP3 ADD MSTORE PUSH32 0x496E76616C6964204465762057616C6C65740000000000000000000000000000 PUSH1 0x44 DUP3 ADD MSTORE PUSH1 0x64 ADD JUMPDEST PUSH1 0x40 MLOAD DUP1 SWAP2 SUB SWAP1 REVERT JUMPDEST PUSH1 0x8 DUP1 SLOAD PUSH20 0xFFFFFFFFFFFFFFFFFFFFFFFFFFFFFFFFFFFFFFFF NOT AND PUSH1 0x1 PUSH1 0x1 PUSH1 0xA0 SHL SUB SWAP3 SWAP1 SWAP3 AND SWAP2 SWAP1 SWAP2 OR SWAP1 SSTORE JUMP JUMPDEST PUSH2 0x6AE PUSH2 0x133A JUMP JUMPDEST PUSH2 0x6B8 PUSH1 0x0 PUSH2 0x1380 JUMP JUMPDEST JUMP JUMPDEST PUSH2 0x6C2 PUSH2 0x13DD JUMP JUMPDEST PUSH1 0x12 SLOAD TIMESTAMP LT ISZERO PUSH2 0x6E5 JUMPI PUSH1 0x40 MLOAD PUSH4 0x3A5F7B57 PUSH1 0xE0 SHL DUP2 MSTORE PUSH1 0x4 ADD PUSH1 0x40 MLOAD DUP1 SWAP2 SUB SWAP1 REVERT JUMPDEST PUSH1 0x11 SLOAD PUSH1 0x12 SLOAD TIMESTAMP SWAP2 PUSH2 0x6F6 SWAP2 PUSH2 0x16B6 JUMP JUMPDEST GT ISZERO PUSH2 0x72E JUMPI PUSH1 0x40 MLOAD PUSH32 0xD25F434400000000000000000000000000000000000000000000000000000000 DUP2 MSTORE PUSH1 0x4 ADD PUSH1 0x40 MLOAD DUP1 SWAP2 SUB SWAP1 REVERT JUMPDEST CALLER PUSH1 0x0 SWAP1 DUP2 MSTORE PUSH1 0x16 PUSH1 0x20 MSTORE PUSH1 0x40 DUP2 KECCAK256 SLOAD SWAP1 SUB PUSH2 0x75D JUMPI PUSH1 0x40 MLOAD PUSH4 0xABCA3517 PUSH1 0xE0 SHL DUP2 MSTORE PUSH1 0x4 ADD PUSH1 0x40 MLOAD DUP1 SWAP2 SUB SWAP1 REVERT JUMPDEST PUSH1 0x2 SLOAD PUSH1 0x1 PUSH1 0x1 PUSH1 0xA0 SHL SUB AND ISZERO PUSH2 0x787 JUMPI PUSH1 0x40 MLOAD PUSH4 0x73411A2F PUSH1 0xE1 SHL DUP2 MSTORE PUSH1 0x4 ADD PUSH1 0x40 MLOAD DUP1 SWAP2 SUB SWAP1 REVERT JUMPDEST PUSH1 0x0 DUP1 JUMPDEST CALLER PUSH1 0x0 SWAP1 DUP2 MSTORE PUSH1 0x14 PUSH1 0x20 MSTORE PUSH1 0x40 SWAP1 KECCAK256 SLOAD DUP2 LT ISZERO PUSH2 0x84C JUMPI CALLER PUSH1 0x0 SWAP1 DUP2 MSTORE PUSH1 0x15 PUSH1 0x20 SWAP1 DUP2 MSTORE PUSH1 0x40 DUP1 DUP4 KECCAK256 PUSH1 0x14 SWAP1 SWAP3 MSTORE DUP3 KECCAK256 DUP1 SLOAD DUP4 SWAP2 SWAP1 DUP6 SWAP1 DUP2 LT PUSH2 0x7D0 JUMPI PUSH2 0x7D0 PUSH2 0x16C9 JUMP JUMPDEST PUSH1 0x0 SWAP2 DUP3 MSTORE PUSH1 0x20 DUP1 DUP4 KECCAK256 SWAP1 SWAP2 ADD SLOAD DUP4 MSTORE DUP3 ADD SWAP3 SWAP1 SWAP3 MSTORE PUSH1 0x40 ADD SWAP1 KECCAK256 DUP1 SLOAD SWAP1 SWAP2 POP PUSH1 0x1 PUSH1 0x1 PUSH1 0xA0 SHL SUB AND CALLER EQ DUP1 ISZERO PUSH2 0x811 JUMPI POP PUSH1 0x4 DUP2 ADD SLOAD PUSH2 0x100 SWAP1 DIV PUSH1 0xFF AND ISZERO JUMPDEST ISZERO PUSH2 0x839 JUMPI PUSH1 0x4 DUP2 ADD DUP1 SLOAD PUSH2 0xFF00 NOT AND PUSH2 0x100 OR SWAP1 SSTORE PUSH1 0x2 DUP2 ADD SLOAD PUSH2 0x836 SWAP1 DUP5 PUSH2 0x16B6 JUMP JUMPDEST SWAP3 POP JUMPDEST POP DUP1 PUSH2 0x844 DUP2 PUSH2 0x16DF JUMP JUMPDEST SWAP2 POP POP PUSH2 0x78B JUMP JUMPDEST POP DUP1 PUSH1 0x0 SUB PUSH2 0x887 JUMPI PUSH1 0x40 MLOAD PUSH32 0xA85E6F1A00000000000000000000000000000000000000000000000000000000 DUP2 MSTORE PUSH1 0x4 ADD PUSH1 0x40 MLOAD DUP1 SWAP2 SUB SWAP1 REVERT JUMPDEST DUP1 SELFBALANCE LT PUSH2 0x8F3 JUMPI PUSH2 0x898 CALLER DUP3 PUSH2 0x1420 JUMP JUMPDEST PUSH2 0x8B5 JUMPI PUSH1 0x40 MLOAD PUSH4 0xCE8F451 PUSH1 0xE3 SHL DUP2 MSTORE PUSH1 0x4 ADD PUSH1 0x40 MLOAD DUP1 SWAP2 SUB SWAP1 REVERT JUMPDEST PUSH1 0x40 DUP1 MLOAD CALLER DUP2 MSTORE PUSH1 0x20 DUP2 ADD DUP4 SWAP1 MSTORE PUSH32 0x48D31F1C958CD44F1F83A52AE2DFAF61E88A1B82C07A6D5711A4ABEF60B6531E SWAP2 ADD PUSH1 0x40 MLOAD DUP1 SWAP2 SUB SWAP1 LOG1 PUSH2 0x925 JUMP JUMPDEST PUSH1 0x40 MLOAD PUSH32 0xE48CE7800000000000000000000000000000000000000000000000000000000 DUP2 MSTORE PUSH1 0x4 ADD PUSH1 0x40 MLOAD DUP1 SWAP2 SUB SWAP1 REVERT JUMPDEST POP PUSH2 0x6B8 PUSH1 0x1 DUP1 SSTORE JUMP JUMPDEST PUSH2 0x937 PUSH2 0x133A JUMP JUMPDEST PUSH1 0x64 DUP2 PUSH1 0xFF AND GT ISZERO PUSH2 0x9B1 JUMPI PUSH1 0x40 MLOAD PUSH3 0x461BCD PUSH1 0xE5 SHL DUP2 MSTORE PUSH1 0x20 PUSH1 0x4 DUP3 ADD MSTORE PUSH1 0x22 PUSH1 0x24 DUP3 ADD MSTORE PUSH32 0x536C697070616765206D757374206265206265747765656E203020616E642031 PUSH1 0x44 DUP3 ADD MSTORE PUSH32 0x3030000000000000000000000000000000000000000000000000000000000000 PUSH1 0x64 DUP3 ADD MSTORE PUSH1 0x84 ADD PUSH2 0x66E JUMP JUMPDEST PUSH1 0xD DUP1 SLOAD PUSH1 0xFF NOT AND PUSH1 0xFF SWAP3 SWAP1 SWAP3 AND SWAP2 SWAP1 SWAP2 OR SWAP1 SSTORE JUMP JUMPDEST PUSH1 0x14 PUSH1 0x20 MSTORE DUP2 PUSH1 0x0 MSTORE PUSH1 0x40 PUSH1 0x0 KECCAK256 DUP2 DUP2 SLOAD DUP2 LT PUSH2 0x9E3 JUMPI PUSH1 0x0 DUP1 REVERT JUMPDEST SWAP1 PUSH1 0x0 MSTORE PUSH1 0x20 PUSH1 0x0 KECCAK256 ADD PUSH1 0x0 SWAP2 POP SWAP2 POP POP SLOAD DUP2 JUMP JUMPDEST PUSH1 0x40 DUP1 MLOAD PUSH1 0xC0 DUP2 ADD DUP3 MSTORE PUSH1 0x0 DUP1 DUP3 MSTORE PUSH1 0x20 DUP3 ADD DUP2 SWAP1 MSTORE SWAP2 DUP2 ADD DUP3 SWAP1 MSTORE PUSH1 0x60 DUP2 ADD DUP3 SWAP1 MSTORE PUSH1 0x80 DUP2 ADD DUP3 SWAP1 MSTORE PUSH1 0xA0 DUP2 ADD SWAP2 SWAP1 SWAP2 MSTORE PUSH2 0xA32 PUSH2 0x13DD JUMP JUMPDEST PUSH1 0x12 SLOAD TIMESTAMP LT ISZERO PUSH2 0xA55 JUMPI PUSH1 0x40 MLOAD PUSH4 0x3A5F7B57 PUSH1 0xE0 SHL DUP2 MSTORE PUSH1 0x4 ADD PUSH1 0x40 MLOAD DUP1 SWAP2 SUB SWAP1 REVERT JUMPDEST PUSH1 0x11 SLOAD PUSH1 0x12 SLOAD PUSH2 0xA65 SWAP2 SWAP1 PUSH2 0x16B6 JUMP JUMPDEST TIMESTAMP GT ISZERO PUSH2 0xA85 JUMPI PUSH1 0x40 MLOAD PUSH4 0x8426A3F PUSH1 0xE1 SHL DUP2 MSTORE PUSH1 0x4 ADD PUSH1 0x40 MLOAD DUP1 SWAP2 SUB SWAP1 REVERT JUMPDEST PUSH1 0x2 SLOAD PUSH1 0x1 PUSH1 0x1 PUSH1 0xA0 SHL SUB AND ISZERO PUSH2 0xAAF JUMPI PUSH1 0x40 MLOAD PUSH4 0x73411A2F PUSH1 0xE1 SHL DUP2 MSTORE PUSH1 0x4 ADD PUSH1 0x40 MLOAD DUP1 SWAP2 SUB SWAP1 REVERT JUMPDEST PUSH1 0xE SLOAD CALLVALUE LT ISZERO PUSH2 0xAEB JUMPI PUSH1 0x40 MLOAD PUSH32 0x8CD9B0A800000000000000000000000000000000000000000000000000000000 DUP2 MSTORE PUSH1 0x4 ADD PUSH1 0x40 MLOAD DUP1 SWAP2 SUB SWAP1 REVERT JUMPDEST CALLER PUSH1 0x0 SWAP1 DUP2 MSTORE PUSH1 0x15 PUSH1 0x20 SWAP1 DUP2 MSTORE PUSH1 0x40 DUP1 DUP4 KECCAK256 DUP8 DUP5 MSTORE SWAP1 SWAP2 MSTORE SWAP1 KECCAK256 SLOAD PUSH1 0x1 PUSH1 0x1 PUSH1 0xA0 SHL SUB AND ISZERO PUSH2 0xB46 JUMPI PUSH1 0x40 MLOAD PUSH32 0xA68ADD0C00000000000000000000000000000000000000000000000000000000 DUP2 MSTORE PUSH1 0x4 ADD PUSH1 0x40 MLOAD DUP1 SWAP2 SUB SWAP1 REVERT JUMPDEST PUSH1 0xD SLOAD PUSH1 0xE SLOAD PUSH1 0x0 SWAP2 PUSH1 0x64 SWAP2 PUSH2 0xB5F SWAP2 PUSH1 0xFF AND SWAP1 PUSH2 0x16F8 JUMP JUMPDEST PUSH2 0xB69 SWAP2 SWAP1 PUSH2 0x170F JUMP JUMPDEST SWAP1 POP PUSH1 0x0 DUP2 PUSH1 0xE PUSH1 0x0 ADD SLOAD PUSH2 0xB7E SWAP2 SWAP1 PUSH2 0x16B6 JUMP JUMPDEST SWAP1 POP DUP1 CALLVALUE LT ISZERO PUSH2 0xBBA JUMPI PUSH1 0x40 MLOAD PUSH32 0x2DDDEFBB00000000000000000000000000000000000000000000000000000000 DUP2 MSTORE PUSH1 0x4 ADD PUSH1 0x40 MLOAD DUP1 SWAP2 SUB SWAP1 REVERT JUMPDEST PUSH1 0xE SLOAD PUSH1 0x0 SWAP1 PUSH2 0xBCA SWAP1 CALLVALUE PUSH2 0x1731 JUMP JUMPDEST SWAP1 POP DUP1 ISZERO PUSH2 0xC00 JUMPI PUSH1 0x0 PUSH2 0xBDE CALLER DUP4 PUSH2 0x1420 JUMP JUMPDEST SWAP1 POP DUP1 PUSH2 0xBFE JUMPI PUSH1 0x40 MLOAD PUSH4 0xCE8F451 PUSH1 0xE3 SHL DUP2 MSTORE PUSH1 0x4 ADD PUSH1 0x40 MLOAD DUP1 SWAP2 SUB SWAP1 REVERT JUMPDEST POP JUMPDEST PUSH1 0x0 PUSH2 0xC0C DUP3 CALLVALUE PUSH2 0x1731 JUMP JUMPDEST SWAP1 POP PUSH2 0xC50 PUSH1 0x40 MLOAD DUP1 PUSH1 0xC0 ADD PUSH1 0x40 MSTORE DUP1 PUSH1 0x0 DUP2 MSTORE PUSH1 0x20 ADD PUSH1 0x0 DUP2 MSTORE PUSH1 0x20 ADD PUSH1 0x0 DUP2 MSTORE PUSH1 0x20 ADD PUSH1 0x0 DUP2 MSTORE PUSH1 0x20 ADD PUSH1 0x0 PUSH1 0x1 PUSH1 0x1 PUSH1 0xA0 SHL SUB AND DUP2 MSTORE PUSH1 0x20 ADD PUSH1 0x60 DUP2 MSTORE POP SWAP1 JUMP JUMPDEST PUSH1 0x13 SLOAD PUSH1 0x64 SWAP1 PUSH2 0xC68 SWAP1 PUSH2 0x100 SWAP1 DIV PUSH1 0xFF AND DUP5 PUSH2 0x16F8 JUMP JUMPDEST PUSH2 0xC72 SWAP2 SWAP1 PUSH2 0x170F JUMP JUMPDEST PUSH1 0x60 DUP3 ADD DUP2 SWAP1 MSTORE PUSH2 0xC83 SWAP1 DUP4 PUSH2 0x1731 JUMP JUMPDEST PUSH1 0x40 DUP3 ADD MSTORE PUSH1 0x60 DUP2 ADD MLOAD ISZERO PUSH2 0xCD4 JUMPI PUSH1 0x8 SLOAD PUSH1 0x60 DUP3 ADD MLOAD PUSH1 0x0 SWAP2 PUSH2 0xCB2 SWAP2 PUSH1 0x1 PUSH1 0x1 PUSH1 0xA0 SHL SUB SWAP1 SWAP2 AND SWAP1 PUSH2 0x1420 JUMP JUMPDEST SWAP1 POP DUP1 PUSH2 0xCD2 JUMPI PUSH1 0x40 MLOAD PUSH4 0xCE8F451 PUSH1 0xE3 SHL DUP2 MSTORE PUSH1 0x4 ADD PUSH1 0x40 MLOAD DUP1 SWAP2 SUB SWAP1 REVERT JUMPDEST POP JUMPDEST DUP1 PUSH1 0x40 ADD MLOAD PUSH1 0xC PUSH1 0x0 DUP3 DUP3 SLOAD PUSH2 0xCEA SWAP2 SWAP1 PUSH2 0x16B6 JUMP JUMPDEST SWAP1 SWAP2 SSTORE POP POP PUSH1 0x10 SLOAD PUSH1 0xE SLOAD LT ISZERO PUSH2 0xD35 JUMPI PUSH1 0xF SLOAD PUSH1 0xE SLOAD PUSH1 0x0 SWAP2 PUSH9 0x56BC75E2D63100000 SWAP2 PUSH2 0xD19 SWAP2 SWAP1 PUSH2 0x16F8 JUMP JUMPDEST PUSH2 0xD23 SWAP2 SWAP1 PUSH2 0x170F JUMP JUMPDEST PUSH1 0xE SLOAD PUSH2 0xD30 SWAP2 SWAP1 PUSH2 0x16B6 JUMP JUMPDEST PUSH1 0xE SSTORE POP JUMPDEST DUP8 DUP8 DUP1 DUP1 PUSH1 0x1F ADD PUSH1 0x20 DUP1 SWAP2 DIV MUL PUSH1 0x20 ADD PUSH1 0x40 MLOAD SWAP1 DUP2 ADD PUSH1 0x40 MSTORE DUP1 SWAP4 SWAP3 SWAP2 SWAP1 DUP2 DUP2 MSTORE PUSH1 0x20 ADD DUP4 DUP4 DUP1 DUP3 DUP5 CALLDATACOPY PUSH1 0x0 SWAP3 ADD DUP3 SWAP1 MSTORE POP PUSH1 0xA0 DUP7 ADD SWAP5 SWAP1 SWAP5 MSTORE POP POP CALLER DUP3 MSTORE POP PUSH1 0x16 PUSH1 0x20 MSTORE PUSH1 0x40 DUP2 KECCAK256 SLOAD SWAP1 SUB PUSH2 0xD9E JUMPI PUSH1 0x1 PUSH1 0xB PUSH1 0x0 DUP3 DUP3 SLOAD PUSH2 0xD98 SWAP2 SWAP1 PUSH2 0x16B6 JUMP JUMPDEST SWAP1 SWAP2 SSTORE POP POP JUMPDEST CALLER PUSH1 0x0 SWAP1 DUP2 MSTORE PUSH1 0x16 PUSH1 0x20 MSTORE PUSH1 0x40 DUP2 KECCAK256 DUP1 SLOAD PUSH1 0x1 SWAP3 SWAP1 PUSH2 0xDBE SWAP1 DUP5 SWAP1 PUSH2 0x16B6 JUMP JUMPDEST SWAP3 POP POP DUP2 SWAP1 SSTORE POP PUSH1 0x1 PUSH1 0xA PUSH1 0x0 DUP3 DUP3 SLOAD PUSH2 0xDD8 SWAP2 SWAP1 PUSH2 0x16B6 JUMP JUMPDEST SWAP3 POP POP DUP2 SWAP1 SSTORE POP DUP9 DUP2 PUSH1 0x0 ADD DUP2 DUP2 MSTORE POP POP CALLER DUP2 PUSH1 0x80 ADD SWAP1 PUSH1 0x1 PUSH1 0x1 PUSH1 0xA0 SHL SUB AND SWAP1 DUP2 PUSH1 0x1 PUSH1 0x1 PUSH1 0xA0 SHL SUB AND DUP2 MSTORE POP POP PUSH1 0x14 PUSH1 0x0 DUP3 PUSH1 0x80 ADD MLOAD PUSH1 0x1 PUSH1 0x1 PUSH1 0xA0 SHL SUB AND PUSH1 0x1 PUSH1 0x1 PUSH1 0xA0 SHL SUB AND DUP2 MSTORE PUSH1 0x20 ADD SWAP1 DUP2 MSTORE PUSH1 0x20 ADD PUSH1 0x0 KECCAK256 DUP10 SWAP1 DUP1 PUSH1 0x1 DUP2 SLOAD ADD DUP1 DUP3 SSTORE DUP1 SWAP2 POP POP PUSH1 0x1 SWAP1 SUB SWAP1 PUSH1 0x0 MSTORE PUSH1 0x20 PUSH1 0x0 KECCAK256 ADD PUSH1 0x0 SWAP1 SWAP2 SWAP1 SWAP2 SWAP1 SWAP2 POP SSTORE PUSH1 0x40 MLOAD DUP1 PUSH1 0xC0 ADD PUSH1 0x40 MSTORE DUP1 DUP3 PUSH1 0x80 ADD MLOAD PUSH1 0x1 PUSH1 0x1 PUSH1 0xA0 SHL SUB AND DUP2 MSTORE PUSH1 0x20 ADD DUP3 PUSH1 0x0 ADD MLOAD DUP2 MSTORE PUSH1 0x20 ADD DUP3 PUSH1 0x40 ADD MLOAD DUP2 MSTORE PUSH1 0x20 ADD TIMESTAMP DUP2 MSTORE PUSH1 0x20 ADD PUSH1 0x0 ISZERO ISZERO DUP2 MSTORE PUSH1 0x20 ADD PUSH1 0x0 ISZERO ISZERO DUP2 MSTORE POP PUSH1 0x15 PUSH1 0x0 CALLER PUSH1 0x1 PUSH1 0x1 PUSH1 0xA0 SHL SUB AND PUSH1 0x1 PUSH1 0x1 PUSH1 0xA0 SHL SUB AND DUP2 MSTORE PUSH1 0x20 ADD SWAP1 DUP2 MSTORE PUSH1 0x20 ADD PUSH1 0x0 KECCAK256 PUSH1 0x0 DUP12 DUP2 MSTORE PUSH1 0x20 ADD SWAP1 DUP2 MSTORE PUSH1 0x20 ADD PUSH1 0x0 KECCAK256 PUSH1 0x0 DUP3 ADD MLOAD DUP2 PUSH1 0x0 ADD PUSH1 0x0 PUSH2 0x100 EXP DUP2 SLOAD DUP2 PUSH1 0x1 PUSH1 0x1 PUSH1 0xA0 SHL SUB MUL NOT AND SWAP1 DUP4 PUSH1 0x1 PUSH1 0x1 PUSH1 0xA0 SHL SUB AND MUL OR SWAP1 SSTORE POP PUSH1 0x20 DUP3 ADD MLOAD DUP2 PUSH1 0x1 ADD SSTORE PUSH1 0x40 DUP3 ADD MLOAD DUP2 PUSH1 0x2 ADD SSTORE PUSH1 0x60 DUP3 ADD MLOAD DUP2 PUSH1 0x3 ADD SSTORE PUSH1 0x80 DUP3 ADD MLOAD DUP2 PUSH1 0x4 ADD PUSH1 0x0 PUSH2 0x100 EXP DUP2 SLOAD DUP2 PUSH1 0xFF MUL NOT AND SWAP1 DUP4 ISZERO ISZERO MUL OR SWAP1 SSTORE POP PUSH1 0xA0 DUP3 ADD MLOAD DUP2 PUSH1 0x4 ADD PUSH1 0x1 PUSH2 0x100 EXP DUP2 SLOAD DUP2 PUSH1 0xFF MUL NOT AND SWAP1 DUP4 ISZERO ISZERO MUL OR SWAP1 SSTORE POP SWAP1 POP POP PUSH32 0xC03AB6E479E5EDD2C91DCF84C08A250A41D3295842CA70554107F6FB3AF0D571 DUP2 PUSH1 0x0 ADD MLOAD CALLER DUP11 DUP11 PUSH1 0x40 MLOAD PUSH2 0xF9C SWAP5 SWAP4 SWAP3 SWAP2 SWAP1 PUSH2 0x1744 JUMP JUMPDEST PUSH1 0x40 MLOAD DUP1 SWAP2 SUB SWAP1 LOG1 POP POP CALLER PUSH1 0x0 SWAP1 DUP2 MSTORE PUSH1 0x15 PUSH1 0x20 SWAP1 DUP2 MSTORE PUSH1 0x40 DUP1 DUP4 KECCAK256 DUP11 DUP5 MSTORE DUP3 MSTORE SWAP2 DUP3 SWAP1 KECCAK256 DUP3 MLOAD PUSH1 0xC0 DUP2 ADD DUP5 MSTORE DUP2 SLOAD PUSH1 0x1 PUSH1 0x1 PUSH1 0xA0 SHL SUB AND DUP2 MSTORE PUSH1 0x1 DUP1 DUP4 ADD SLOAD SWAP4 DUP3 ADD SWAP4 SWAP1 SWAP4 MSTORE PUSH1 0x2 DUP3 ADD SLOAD SWAP4 DUP2 ADD SWAP4 SWAP1 SWAP4 MSTORE PUSH1 0x3 DUP2 ADD SLOAD PUSH1 0x60 DUP5 ADD MSTORE PUSH1 0x4 ADD SLOAD PUSH1 0xFF DUP1 DUP3 AND ISZERO ISZERO PUSH1 0x80 DUP6 ADD MSTORE PUSH2 0x100 SWAP1 SWAP2 DIV AND ISZERO ISZERO PUSH1 0xA0 DUP4 ADD MSTORE DUP1 SSTORE SWAP4 POP PUSH2 0x1024 SWAP3 POP POP POP JUMP JUMPDEST SWAP4 SWAP3 POP POP POP JUMP JUMPDEST PUSH2 0x1033 PUSH2 0x133A JUMP JUMPDEST PUSH1 0x12 SLOAD TIMESTAMP LT ISZERO PUSH2 0x1056 JUMPI PUSH1 0x40 MLOAD PUSH4 0x3A5F7B57 PUSH1 0xE0 SHL DUP2 MSTORE PUSH1 0x4 ADD PUSH1 0x40 MLOAD DUP1 SWAP2 SUB SWAP1 REVERT JUMPDEST PUSH1 0x11 SLOAD PUSH1 0x12 SLOAD PUSH2 0x1066 SWAP2 SWAP1 PUSH2 0x16B6 JUMP JUMPDEST TIMESTAMP GT ISZERO PUSH2 0x1086 JUMPI PUSH1 0x40 MLOAD PUSH4 0x8426A3F PUSH1 0xE1 SHL DUP2 MSTORE PUSH1 0x4 ADD PUSH1 0x40 MLOAD DUP1 SWAP2 SUB SWAP1 REVERT JUMPDEST PUSH1 0x1 PUSH1 0x1 PUSH1 0xA0 SHL SUB DUP1 DUP3 AND PUSH1 0x0 DUP2 DUP2 MSTORE PUSH1 0x15 PUSH1 0x20 SWAP1 DUP2 MSTORE PUSH1 0x40 DUP1 DUP4 KECCAK256 DUP8 DUP5 MSTORE SWAP1 SWAP2 MSTORE SWAP1 KECCAK256 DUP1 SLOAD SWAP1 SWAP3 AND EQ PUSH2 0x1122 JUMPI PUSH1 0x40 MLOAD PUSH3 0x461BCD PUSH1 0xE5 SHL DUP2 MSTORE PUSH1 0x20 PUSH1 0x4 DUP3 ADD MSTORE PUSH1 0x2E PUSH1 0x24 DUP3 ADD MSTORE PUSH32 0x2057696E6E6572206164647265737320646F6573206E6F74206D617463682070 PUSH1 0x44 DUP3 ADD MSTORE PUSH32 0x6C61796572206164647265737320000000000000000000000000000000000000 PUSH1 0x64 DUP3 ADD MSTORE PUSH1 0x84 ADD PUSH2 0x66E JUMP JUMPDEST DUP1 SLOAD PUSH1 0x1 PUSH1 0x1 PUSH1 0xA0 SHL SUB AND PUSH2 0x114A JUMPI PUSH1 0x40 MLOAD PUSH4 0xABCA3517 PUSH1 0xE0 SHL DUP2 MSTORE PUSH1 0x4 ADD PUSH1 0x40 MLOAD DUP1 SWAP2 SUB SWAP1 REVERT JUMPDEST PUSH1 0x2 SLOAD PUSH1 0x1 PUSH1 0x1 PUSH1 0xA0 SHL SUB AND ISZERO PUSH2 0x1174 JUMPI PUSH1 0x40 MLOAD PUSH4 0x73411A2F PUSH1 0xE1 SHL DUP2 MSTORE PUSH1 0x4 ADD PUSH1 0x40 MLOAD DUP1 SWAP2 SUB SWAP1 REVERT JUMPDEST PUSH1 0x2 DUP1 SLOAD PUSH1 0x1 PUSH1 0x1 PUSH1 0xA0 SHL SUB DUP1 DUP6 AND PUSH20 0xFFFFFFFFFFFFFFFFFFFFFFFFFFFFFFFFFFFFFFFF NOT SWAP3 DUP4 AND OR DUP4 SSTORE DUP4 SLOAD PUSH1 0x3 DUP1 SLOAD SWAP1 SWAP4 AND SWAP2 AND OR DUP2 SSTORE PUSH1 0x1 DUP4 DUP2 ADD SLOAD PUSH1 0x4 SWAP1 DUP2 SSTORE SWAP3 DUP5 ADD SLOAD PUSH1 0x5 SSTORE SWAP1 DUP4 ADD SLOAD PUSH1 0x6 SSTORE SWAP1 DUP3 ADD DUP1 SLOAD PUSH1 0x7 DUP1 SLOAD PUSH1 0xFF SWAP3 DUP4 AND ISZERO ISZERO PUSH1 0xFF NOT DUP1 DUP4 AND DUP3 OR DUP5 SSTORE DUP6 SLOAD PUSH2 0x100 SWAP1 DUP2 SWAP1 DIV SWAP1 SWAP6 AND ISZERO ISZERO SWAP1 SWAP5 MUL PUSH2 0xFF00 NOT SWAP1 SWAP2 AND PUSH2 0xFFFF NOT SWAP1 SWAP3 AND SWAP2 SWAP1 SWAP2 OR OR SWAP1 SSTORE DUP2 SLOAD AND SWAP1 SWAP2 OR SWAP1 SSTORE PUSH1 0xC SLOAD ISZERO DUP1 PUSH2 0x121B JUMPI POP SELFBALANCE ISZERO JUMPDEST ISZERO PUSH2 0x1252 JUMPI PUSH1 0x40 MLOAD PUSH32 0x32F4537300000000000000000000000000000000000000000000000000000000 DUP2 MSTORE PUSH1 0x4 ADD PUSH1 0x40 MLOAD DUP1 SWAP2 SUB SWAP1 REVERT JUMPDEST PUSH1 0x0 SELFBALANCE PUSH1 0xC SLOAD GT PUSH2 0x1265 JUMPI PUSH1 0xC SLOAD PUSH2 0x1267 JUMP JUMPDEST SELFBALANCE JUMPDEST PUSH1 0x2 SLOAD SWAP1 SWAP2 POP PUSH2 0x1280 SWAP1 PUSH1 0x1 PUSH1 0x1 PUSH1 0xA0 SHL SUB AND DUP3 PUSH2 0x1420 JUMP JUMPDEST PUSH2 0x129D JUMPI PUSH1 0x40 MLOAD PUSH4 0xCE8F451 PUSH1 0xE3 SHL DUP2 MSTORE PUSH1 0x4 ADD PUSH1 0x40 MLOAD DUP1 SWAP2 SUB SWAP1 REVERT JUMPDEST PUSH1 0x2 SLOAD PUSH1 0x40 MLOAD PUSH1 0x1 PUSH1 0x1 PUSH1 0xA0 SHL SUB SWAP1 SWAP2 AND DUP2 MSTORE PUSH32 0x2D66076F24AF48812DC2FDD69AC3D62BC732D6766CE65FDF93A45675FABA22BD SWAP1 PUSH1 0x20 ADD PUSH1 0x40 MLOAD DUP1 SWAP2 SUB SWAP1 LOG1 POP POP POP POP JUMP JUMPDEST PUSH2 0x12EB PUSH2 0x133A JUMP JUMPDEST PUSH1 0x1 PUSH1 0x1 PUSH1 0xA0 SHL SUB DUP2 AND PUSH2 0x132E JUMPI PUSH1 0x40 MLOAD PUSH32 0x1E4FBDF700000000000000000000000000000000000000000000000000000000 DUP2 MSTORE PUSH1 0x0 PUSH1 0x4 DUP3 ADD MSTORE PUSH1 0x24 ADD PUSH2 0x66E JUMP JUMPDEST PUSH2 0x1337 DUP2 PUSH2 0x1380 JUMP JUMPDEST POP JUMP JUMPDEST PUSH1 0x0 SLOAD PUSH1 0x1 PUSH1 0x1 PUSH1 0xA0 SHL SUB AND CALLER EQ PUSH2 0x6B8 JUMPI PUSH1 0x40 MLOAD PUSH32 0x118CDAA700000000000000000000000000000000000000000000000000000000 DUP2 MSTORE CALLER PUSH1 0x4 DUP3 ADD MSTORE PUSH1 0x24 ADD PUSH2 0x66E JUMP JUMPDEST PUSH1 0x0 DUP1 SLOAD PUSH1 0x1 PUSH1 0x1 PUSH1 0xA0 SHL SUB DUP4 DUP2 AND PUSH20 0xFFFFFFFFFFFFFFFFFFFFFFFFFFFFFFFFFFFFFFFF NOT DUP4 AND DUP2 OR DUP5 SSTORE PUSH1 0x40 MLOAD SWAP2 SWAP1 SWAP3 AND SWAP3 DUP4 SWAP2 PUSH32 0x8BE0079C531659141344CD1FD0A4F28419497F9722A3DAAFE3B4186F6B6457E0 SWAP2 SWAP1 LOG3 POP POP JUMP JUMPDEST PUSH1 0x2 PUSH1 0x1 SLOAD SUB PUSH2 0x1419 JUMPI PUSH1 0x40 MLOAD PUSH32 0x3EE5AEB500000000000000000000000000000000000000000000000000000000 DUP2 MSTORE PUSH1 0x4 ADD PUSH1 0x40 MLOAD DUP1 SWAP2 SUB SWAP1 REVERT JUMPDEST PUSH1 0x2 PUSH1 0x1 SSTORE JUMP JUMPDEST PUSH1 0x0 DUP1 DUP4 PUSH1 0x1 PUSH1 0x1 PUSH1 0xA0 SHL SUB AND DUP4 PUSH1 0x40 MLOAD PUSH1 0x0 PUSH1 0x40 MLOAD DUP1 DUP4 SUB DUP2 DUP6 DUP8 GAS CALL SWAP3 POP POP POP RETURNDATASIZE DUP1 PUSH1 0x0 DUP2 EQ PUSH2 0x146E JUMPI PUSH1 0x40 MLOAD SWAP2 POP PUSH1 0x1F NOT PUSH1 0x3F RETURNDATASIZE ADD AND DUP3 ADD PUSH1 0x40 MSTORE RETURNDATASIZE DUP3 MSTORE RETURNDATASIZE PUSH1 0x0 PUSH1 0x20 DUP5 ADD RETURNDATACOPY PUSH2 0x1473 JUMP JUMPDEST PUSH1 0x60 SWAP2 POP JUMPDEST POP SWAP1 SWAP3 POP POP POP JUMPDEST SWAP3 SWAP2 POP POP JUMP JUMPDEST PUSH1 0x0 PUSH1 0x20 DUP1 DUP4 MSTORE DUP4 MLOAD DUP1 DUP3 DUP6 ADD MSTORE PUSH1 0x0 JUMPDEST DUP2 DUP2 LT ISZERO PUSH2 0x14AD JUMPI DUP6 DUP2 ADD DUP4 ADD MLOAD DUP6 DUP3 ADD PUSH1 0x40 ADD MSTORE DUP3 ADD PUSH2 0x1491 JUMP JUMPDEST POP PUSH1 0x0 PUSH1 0x40 DUP3 DUP7 ADD ADD MSTORE PUSH1 0x40 PUSH1 0x1F NOT PUSH1 0x1F DUP4 ADD AND DUP6 ADD ADD SWAP3 POP POP POP SWAP3 SWAP2 POP POP JUMP JUMPDEST DUP1 CALLDATALOAD PUSH1 0x1 PUSH1 0x1 PUSH1 0xA0 SHL SUB DUP2 AND DUP2 EQ PUSH2 0x14E5 JUMPI PUSH1 0x0 DUP1 REVERT JUMPDEST SWAP2 SWAP1 POP JUMP JUMPDEST PUSH1 0x0 PUSH1 0x20 DUP3 DUP5 SUB SLT ISZERO PUSH2 0x14FC JUMPI PUSH1 0x0 DUP1 REVERT JUMPDEST PUSH2 0x1024 DUP3 PUSH2 0x14CE JUMP JUMPDEST PUSH1 0x0 DUP1 PUSH1 0x40 DUP4 DUP6 SUB SLT ISZERO PUSH2 0x1518 JUMPI PUSH1 0x0 DUP1 REVERT JUMPDEST PUSH2 0x1521 DUP4 PUSH2 0x14CE JUMP JUMPDEST SWAP5 PUSH1 0x20 SWAP4 SWAP1 SWAP4 ADD CALLDATALOAD SWAP4 POP POP POP JUMP JUMPDEST DUP1 CALLDATALOAD PUSH1 0xFF DUP2 AND DUP2 EQ PUSH2 0x14E5 JUMPI PUSH1 0x0 DUP1 REVERT JUMPDEST PUSH1 0x0 PUSH1 0xE0 DUP3 DUP5 SUB SLT ISZERO PUSH2 0x1552 JUMPI PUSH1 0x0 DUP1 REVERT JUMPDEST PUSH1 0x40 MLOAD PUSH1 0xE0 DUP2 ADD DUP2 DUP2 LT PUSH8 0xFFFFFFFFFFFFFFFF DUP3 GT OR ISZERO PUSH2 0x1583 JUMPI PUSH4 0x4E487B71 PUSH1 0xE0 SHL PUSH1 0x0 MSTORE PUSH1 0x41 PUSH1 0x4 MSTORE PUSH1 0x24 PUSH1 0x0 REVERT JUMPDEST DUP1 PUSH1 0x40 MSTORE POP DUP3 CALLDATALOAD DUP2 MSTORE PUSH1 0x20 DUP4 ADD CALLDATALOAD PUSH1 0x20 DUP3 ADD MSTORE PUSH1 0x40 DUP4 ADD CALLDATALOAD PUSH1 0x40 DUP3 ADD MSTORE PUSH1 0x60 DUP4 ADD CALLDATALOAD PUSH1 0x60 DUP3 ADD MSTORE PUSH1 0x80 DUP4 ADD CALLDATALOAD PUSH1 0x80 DUP3 ADD MSTORE PUSH2 0x15C0 PUSH1 0xA0 DUP5 ADD PUSH2 0x152F JUMP JUMPDEST PUSH1 0xA0 DUP3 ADD MSTORE PUSH2 0x15D1 PUSH1 0xC0 DUP5 ADD PUSH2 0x152F JUMP JUMPDEST PUSH1 0xC0 DUP3 ADD MSTORE SWAP4 SWAP3 POP POP POP JUMP JUMPDEST PUSH1 0x0 PUSH1 0x20 DUP3 DUP5 SUB SLT ISZERO PUSH2 0x15EF JUMPI PUSH1 0x0 DUP1 REVERT JUMPDEST PUSH2 0x1024 DUP3 PUSH2 0x152F JUMP JUMPDEST PUSH1 0x0 DUP1 PUSH1 0x0 PUSH1 0x40 DUP5 DUP7 SUB SLT ISZERO PUSH2 0x160D JUMPI PUSH1 0x0 DUP1 REVERT JUMPDEST DUP4 CALLDATALOAD SWAP3 POP PUSH1 0x20 DUP5 ADD CALLDATALOAD PUSH8 0xFFFFFFFFFFFFFFFF DUP1 DUP3 GT ISZERO PUSH2 0x162C JUMPI PUSH1 0x0 DUP1 REVERT JUMPDEST DUP2 DUP7 ADD SWAP2 POP DUP7 PUSH1 0x1F DUP4 ADD SLT PUSH2 0x1640 JUMPI PUSH1 0x0 DUP1 REVERT JUMPDEST DUP2 CALLDATALOAD DUP2 DUP2 GT ISZERO PUSH2 0x164F JUMPI PUSH1 0x0 DUP1 REVERT JUMPDEST DUP8 PUSH1 0x20 DUP3 DUP6 ADD ADD GT ISZERO PUSH2 0x1661 JUMPI PUSH1 0x0 DUP1 REVERT JUMPDEST PUSH1 0x20 DUP4 ADD SWAP5 POP DUP1 SWAP4 POP POP POP POP SWAP3 POP SWAP3 POP SWAP3 JUMP JUMPDEST PUSH1 0x0 DUP1 PUSH1 0x40 DUP4 DUP6 SUB SLT ISZERO PUSH2 0x1687 JUMPI PUSH1 0x0 DUP1 REVERT JUMPDEST DUP3 CALLDATALOAD SWAP2 POP PUSH2 0x1697 PUSH1 0x20 DUP5 ADD PUSH2 0x14CE JUMP JUMPDEST SWAP1 POP SWAP3 POP SWAP3 SWAP1 POP JUMP JUMPDEST PUSH4 0x4E487B71 PUSH1 0xE0 SHL PUSH1 0x0 MSTORE PUSH1 0x11 PUSH1 0x4 MSTORE PUSH1 0x24 PUSH1 0x0 REVERT JUMPDEST DUP1 DUP3 ADD DUP1 DUP3 GT ISZERO PUSH2 0x147A JUMPI PUSH2 0x147A PUSH2 0x16A0 JUMP JUMPDEST PUSH4 0x4E487B71 PUSH1 0xE0 SHL PUSH1 0x0 MSTORE PUSH1 0x32 PUSH1 0x4 MSTORE PUSH1 0x24 PUSH1 0x0 REVERT JUMPDEST PUSH1 0x0 PUSH1 0x1 DUP3 ADD PUSH2 0x16F1 JUMPI PUSH2 0x16F1 PUSH2 0x16A0 JUMP JUMPDEST POP PUSH1 0x1 ADD SWAP1 JUMP JUMPDEST DUP1 DUP3 MUL DUP2 ISZERO DUP3 DUP3 DIV DUP5 EQ OR PUSH2 0x147A JUMPI PUSH2 0x147A PUSH2 0x16A0 JUMP JUMPDEST PUSH1 0x0 DUP3 PUSH2 0x172C JUMPI PUSH4 0x4E487B71 PUSH1 0xE0 SHL PUSH1 0x0 MSTORE PUSH1 0x12 PUSH1 0x4 MSTORE PUSH1 0x24 PUSH1 0x0 REVERT JUMPDEST POP DIV SWAP1 JUMP JUMPDEST DUP2 DUP2 SUB DUP2 DUP2 GT ISZERO PUSH2 0x147A JUMPI PUSH2 0x147A PUSH2 0x16A0 JUMP JUMPDEST DUP5 DUP2 MSTORE PUSH1 0x1 PUSH1 0x1 PUSH1 0xA0 SHL SUB DUP5 AND PUSH1 0x20 DUP3 ADD MSTORE PUSH1 0x60 PUSH1 0x40 DUP3 ADD MSTORE DUP2 PUSH1 0x60 DUP3 ADD MSTORE DUP2 DUP4 PUSH1 0x80 DUP4 ADD CALLDATACOPY PUSH1 0x0 DUP2 DUP4 ADD PUSH1 0x80 SWAP1 DUP2 ADD SWAP2 SWAP1 SWAP2 MSTORE PUSH1 0x1F SWAP1 SWAP3 ADD PUSH1 0x1F NOT AND ADD ADD SWAP4 SWAP3 POP POP POP JUMP INVALID LOG2 PUSH5 0x6970667358 0x22 SLT KECCAK256 REVERT SWAP9 DIV CALLVALUE 0xCB 0xE 0x2C 0xF8 PUSH7 0xCE983F22E8A2E5 DUP12 PUSH8 0x48E47E47D717C7A9 PUSH10 0x367525540964736F6C63 NUMBER STOP ADDMOD ISZERO STOP CALLER "
        },
        "methodIdentifiers": {
          "currentWinner()": "aabe2fe3",
          "declareWinner(uint256,address)": "e374b097",
          "developerWallet()": "185870f9",
          "gameConfig()": "1176829d",
          "getRefund()": "b2d5ae44",
          "initialPrizePool()": "290d9fcc",
          "minSlippagePercentage()": "57c43c1b",
          "name()": "06fdde03",
          "owner()": "8da5cb5b",
          "play(uint256,string)": "c9cb6eeb",
          "playerAttemptCount(address)": "248a308b",
          "playerAttempts(address,uint256)": "2f2e094d",
          "prizePool()": "719ce73e",
          "renounceOwnership()": "715018a6",
          "requestIds(address,uint256)": "c1c3f908",
          "setDeveloperWallet(address)": "6cd56878",
          "setMinSlippgae(uint8)": "bc7ba2a4",
          "totalAttempts()": "1228f910",
          "totalPlayers()": "f60cdcf6",
          "transferOwnership(address)": "f2fde38b",
          "updateConfig((uint256,uint256,uint256,uint256,uint256,uint8,uint8))": "2f8e1653",
          "winningAttempt()": "cfb476e9"
        }
      }
    }
  }
}